{
  "contractName": "ERC20Operator",
  "abi": [
    {
      "inputs": [
        {
          "internalType": "address",
          "name": "erc20Address",
          "type": "address"
        }
      ],
      "stateMutability": "nonpayable",
      "type": "constructor"
    },
    {
      "inputs": [
        {
          "internalType": "address",
          "name": "",
          "type": "address"
        }
      ],
      "name": "balances",
      "outputs": [
        {
          "internalType": "uint256",
          "name": "",
          "type": "uint256"
        }
      ],
      "stateMutability": "view",
      "type": "function"
    },
    {
      "inputs": [
        {
          "internalType": "uint256",
          "name": "amount",
          "type": "uint256"
        }
      ],
      "name": "deposit",
      "outputs": [],
      "stateMutability": "nonpayable",
      "type": "function"
    },
    {
      "inputs": [],
      "name": "retrieveTokens",
      "outputs": [],
      "stateMutability": "nonpayable",
      "type": "function"
    },
    {
      "inputs": [
        {
          "internalType": "address",
          "name": "spender",
          "type": "address"
        },
        {
          "internalType": "uint256",
          "name": "amount",
          "type": "uint256"
        }
      ],
      "name": "approve",
      "outputs": [],
      "stateMutability": "nonpayable",
      "type": "function"
    }
  ],
  "bytecode": "0x608060405234801561001057600080fd5b506040516107a43803806107a4833981810160405281019061003291906100dc565b80600160006101000a81548173ffffffffffffffffffffffffffffffffffffffff021916908373ffffffffffffffffffffffffffffffffffffffff16021790555050610109565b600080fd5b600073ffffffffffffffffffffffffffffffffffffffff82169050919050565b60006100a98261007e565b9050919050565b6100b98161009e565b81146100c457600080fd5b50565b6000815190506100d6816100b0565b92915050565b6000602082840312156100f2576100f1610079565b5b6000610100848285016100c7565b91505092915050565b61068c806101186000396000f3fe608060405234801561001057600080fd5b506004361061004c5760003560e01c8063095ea7b31461005157806327e235e31461006d578063600d70031461009d578063b6b55f25146100a7575b600080fd5b61006b60048036038101906100669190610439565b6100c3565b005b61008760048036038101906100829190610479565b610168565b60405161009491906104b5565b60405180910390f35b6100a5610180565b005b6100c160048036038101906100bc91906104d0565b6102a5565b005b600160009054906101000a900473ffffffffffffffffffffffffffffffffffffffff1673ffffffffffffffffffffffffffffffffffffffff1663095ea7b383836040518363ffffffff1660e01b815260040161012092919061050c565b6020604051808303816000875af115801561013f573d6000803e3d6000fd5b505050506040513d601f19601f82011682018060405250810190610163919061056d565b505050565b60006020528060005260406000206000915090505481565b600160009054906101000a900473ffffffffffffffffffffffffffffffffffffffff1673ffffffffffffffffffffffffffffffffffffffff1663a9059cbb336000803373ffffffffffffffffffffffffffffffffffffffff1673ffffffffffffffffffffffffffffffffffffffff168152602001908152602001600020546040518363ffffffff1660e01b815260040161021b92919061050c565b6020604051808303816000875af115801561023a573d6000803e3d6000fd5b505050506040513d601f19601f8201168201806040525081019061025e919061056d565b5060008060003373ffffffffffffffffffffffffffffffffffffffff1673ffffffffffffffffffffffffffffffffffffffff16815260200190815260200160002081905550565b600160009054906101000a900473ffffffffffffffffffffffffffffffffffffffff1673ffffffffffffffffffffffffffffffffffffffff166323b872dd3330846040518463ffffffff1660e01b81526004016103049392919061059a565b6020604051808303816000875af1158015610323573d6000803e3d6000fd5b505050506040513d601f19601f82011682018060405250810190610347919061056d565b50806000803373ffffffffffffffffffffffffffffffffffffffff1673ffffffffffffffffffffffffffffffffffffffff16815260200190815260200160002060008282546103969190610600565b9250508190555050565b600080fd5b600073ffffffffffffffffffffffffffffffffffffffff82169050919050565b60006103d0826103a5565b9050919050565b6103e0816103c5565b81146103eb57600080fd5b50565b6000813590506103fd816103d7565b92915050565b6000819050919050565b61041681610403565b811461042157600080fd5b50565b6000813590506104338161040d565b92915050565b600080604083850312156104505761044f6103a0565b5b600061045e858286016103ee565b925050602061046f85828601610424565b9150509250929050565b60006020828403121561048f5761048e6103a0565b5b600061049d848285016103ee565b91505092915050565b6104af81610403565b82525050565b60006020820190506104ca60008301846104a6565b92915050565b6000602082840312156104e6576104e56103a0565b5b60006104f484828501610424565b91505092915050565b610506816103c5565b82525050565b600060408201905061052160008301856104fd565b61052e60208301846104a6565b9392505050565b60008115159050919050565b61054a81610535565b811461055557600080fd5b50565b60008151905061056781610541565b92915050565b600060208284031215610583576105826103a0565b5b600061059184828501610558565b91505092915050565b60006060820190506105af60008301866104fd565b6105bc60208301856104fd565b6105c960408301846104a6565b949350505050565b7f4e487b7100000000000000000000000000000000000000000000000000000000600052601160045260246000fd5b600061060b82610403565b915061061683610403565b9250827fffffffffffffffffffffffffffffffffffffffffffffffffffffffffffffffff0382111561064b5761064a6105d1565b5b82820190509291505056fea26469706673582212201fea285396cfe727c5e46ea451d08e4218de1c0dde16693bba59fb36e1bff82164736f6c634300080a0033",
  "immutableReferences": {},
  "source": "// SPDX-License-Identifier: MIT\r\npragma solidity >=0.4.22 <0.9.0;\r\n\r\nimport \"../node_modules/@openzeppelin/contracts/token/ERC20/ERC20.sol\";\r\n\r\ncontract ERC20Operator {\r\n\r\n  mapping (address=>uint) public balances;\r\n  ERC20 private myERC20;\r\n\r\n  constructor (address erc20Address)\r\n  {\r\n    myERC20 = ERC20(erc20Address);\r\n  }\r\n\r\n  function deposit(uint amount) public\r\n  {\r\n    myERC20.transferFrom(address(msg.sender), address(this), amount);\r\n    balances[msg.sender] += amount;\r\n  }\r\n\r\n  function retrieveTokens() public\r\n  {\r\n    myERC20.transfer(address(msg.sender), balances[msg.sender]);\r\n    balances[msg.sender] = 0;\r\n  }\r\n\r\n//TODO implementar\r\n\r\n  function approve(address spender, uint amount) public\r\n  {\r\n    myERC20.approve(spender, amount);\r\n  }\r\n\r\n}",
  "sourcePath": "D:\\Programacion\\Blockchain\\lungo-token-nft\\nft-token-solidity\\contracts\\5.ERC20Operator.sol",
  "compiler": {
    "name": "solc",
    "version": "0.8.10+commit.fc410830.Emscripten.clang"
  },
  "schemaVersion": "3.4.4",
  "updatedAt": "2022-01-17T19:43:32.611Z",
  "devdoc": {
    "kind": "dev",
    "methods": {},
    "version": 1
  },
  "userdoc": {
    "kind": "user",
    "methods": {},
    "version": 1
  }
}