{
  "contractName": "LungoNFT",
  "abi": [
    {
      "inputs": [],
      "stateMutability": "nonpayable",
      "type": "constructor"
    },
    {
      "anonymous": false,
      "inputs": [
        {
          "indexed": true,
          "internalType": "address",
          "name": "owner",
          "type": "address"
        },
        {
          "indexed": true,
          "internalType": "address",
          "name": "approved",
          "type": "address"
        },
        {
          "indexed": true,
          "internalType": "uint256",
          "name": "tokenId",
          "type": "uint256"
        }
      ],
      "name": "Approval",
      "type": "event"
    },
    {
      "anonymous": false,
      "inputs": [
        {
          "indexed": true,
          "internalType": "address",
          "name": "owner",
          "type": "address"
        },
        {
          "indexed": true,
          "internalType": "address",
          "name": "operator",
          "type": "address"
        },
        {
          "indexed": false,
          "internalType": "bool",
          "name": "approved",
          "type": "bool"
        }
      ],
      "name": "ApprovalForAll",
      "type": "event"
    },
    {
      "anonymous": false,
      "inputs": [
        {
          "indexed": true,
          "internalType": "address",
          "name": "from",
          "type": "address"
        },
        {
          "indexed": true,
          "internalType": "address",
          "name": "to",
          "type": "address"
        },
        {
          "indexed": true,
          "internalType": "uint256",
          "name": "tokenId",
          "type": "uint256"
        }
      ],
      "name": "Transfer",
      "type": "event"
    },
    {
      "inputs": [
        {
          "internalType": "address",
          "name": "to",
          "type": "address"
        },
        {
          "internalType": "uint256",
          "name": "tokenId",
          "type": "uint256"
        }
      ],
      "name": "approve",
      "outputs": [],
      "stateMutability": "nonpayable",
      "type": "function"
    },
    {
      "inputs": [
        {
          "internalType": "address",
          "name": "owner",
          "type": "address"
        }
      ],
      "name": "balanceOf",
      "outputs": [
        {
          "internalType": "uint256",
          "name": "",
          "type": "uint256"
        }
      ],
      "stateMutability": "view",
      "type": "function"
    },
    {
      "inputs": [
        {
          "internalType": "uint256",
          "name": "tokenId",
          "type": "uint256"
        }
      ],
      "name": "getApproved",
      "outputs": [
        {
          "internalType": "address",
          "name": "",
          "type": "address"
        }
      ],
      "stateMutability": "view",
      "type": "function"
    },
    {
      "inputs": [
        {
          "internalType": "address",
          "name": "owner",
          "type": "address"
        },
        {
          "internalType": "address",
          "name": "operator",
          "type": "address"
        }
      ],
      "name": "isApprovedForAll",
      "outputs": [
        {
          "internalType": "bool",
          "name": "",
          "type": "bool"
        }
      ],
      "stateMutability": "view",
      "type": "function"
    },
    {
      "inputs": [],
      "name": "name",
      "outputs": [
        {
          "internalType": "string",
          "name": "",
          "type": "string"
        }
      ],
      "stateMutability": "view",
      "type": "function"
    },
    {
      "inputs": [
        {
          "internalType": "uint256",
          "name": "tokenId",
          "type": "uint256"
        }
      ],
      "name": "ownerOf",
      "outputs": [
        {
          "internalType": "address",
          "name": "",
          "type": "address"
        }
      ],
      "stateMutability": "view",
      "type": "function"
    },
    {
      "inputs": [
        {
          "internalType": "address",
          "name": "from",
          "type": "address"
        },
        {
          "internalType": "address",
          "name": "to",
          "type": "address"
        },
        {
          "internalType": "uint256",
          "name": "tokenId",
          "type": "uint256"
        }
      ],
      "name": "safeTransferFrom",
      "outputs": [],
      "stateMutability": "nonpayable",
      "type": "function"
    },
    {
      "inputs": [
        {
          "internalType": "address",
          "name": "from",
          "type": "address"
        },
        {
          "internalType": "address",
          "name": "to",
          "type": "address"
        },
        {
          "internalType": "uint256",
          "name": "tokenId",
          "type": "uint256"
        },
        {
          "internalType": "bytes",
          "name": "_data",
          "type": "bytes"
        }
      ],
      "name": "safeTransferFrom",
      "outputs": [],
      "stateMutability": "nonpayable",
      "type": "function"
    },
    {
      "inputs": [
        {
          "internalType": "address",
          "name": "operator",
          "type": "address"
        },
        {
          "internalType": "bool",
          "name": "approved",
          "type": "bool"
        }
      ],
      "name": "setApprovalForAll",
      "outputs": [],
      "stateMutability": "nonpayable",
      "type": "function"
    },
    {
      "inputs": [],
      "name": "supply",
      "outputs": [
        {
          "internalType": "uint256",
          "name": "",
          "type": "uint256"
        }
      ],
      "stateMutability": "view",
      "type": "function"
    },
    {
      "inputs": [],
      "name": "symbol",
      "outputs": [
        {
          "internalType": "string",
          "name": "",
          "type": "string"
        }
      ],
      "stateMutability": "view",
      "type": "function"
    },
    {
      "inputs": [
        {
          "internalType": "uint256",
          "name": "index",
          "type": "uint256"
        }
      ],
      "name": "tokenByIndex",
      "outputs": [
        {
          "internalType": "uint256",
          "name": "",
          "type": "uint256"
        }
      ],
      "stateMutability": "view",
      "type": "function"
    },
    {
      "inputs": [
        {
          "internalType": "address",
          "name": "owner",
          "type": "address"
        },
        {
          "internalType": "uint256",
          "name": "index",
          "type": "uint256"
        }
      ],
      "name": "tokenOfOwnerByIndex",
      "outputs": [
        {
          "internalType": "uint256",
          "name": "",
          "type": "uint256"
        }
      ],
      "stateMutability": "view",
      "type": "function"
    },
    {
      "inputs": [],
      "name": "totalSupply",
      "outputs": [
        {
          "internalType": "uint256",
          "name": "",
          "type": "uint256"
        }
      ],
      "stateMutability": "view",
      "type": "function"
    },
    {
      "inputs": [
        {
          "internalType": "address",
          "name": "from",
          "type": "address"
        },
        {
          "internalType": "address",
          "name": "to",
          "type": "address"
        },
        {
          "internalType": "uint256",
          "name": "tokenId",
          "type": "uint256"
        }
      ],
      "name": "transferFrom",
      "outputs": [],
      "stateMutability": "nonpayable",
      "type": "function"
    },
    {
      "inputs": [],
      "name": "mint",
      "outputs": [],
      "stateMutability": "nonpayable",
      "type": "function"
    },
    {
      "inputs": [
        {
          "internalType": "uint256",
          "name": "tokenId",
          "type": "uint256"
        }
      ],
      "name": "tokenURI",
      "outputs": [
        {
          "internalType": "string",
          "name": "",
          "type": "string"
        }
      ],
      "stateMutability": "view",
      "type": "function"
    },
    {
      "inputs": [
        {
          "internalType": "bytes4",
          "name": "interfaceId",
          "type": "bytes4"
        }
      ],
      "name": "supportsInterface",
      "outputs": [
        {
          "internalType": "bool",
          "name": "",
          "type": "bool"
        }
      ],
      "stateMutability": "view",
      "type": "function"
    }
  ],
  "bytecode": "0x60806040523480156200001157600080fd5b506040518060400160405280600981526020017f4c756e676f204e465400000000000000000000000000000000000000000000008152506040518060400160405280600381526020017f4c4e470000000000000000000000000000000000000000000000000000000000815250816000908051906020019062000096929190620000b8565b508060019080519060200190620000af929190620000b8565b505050620001cd565b828054620000c69062000197565b90600052602060002090601f016020900481019282620000ea576000855562000136565b82601f106200010557805160ff191683800117855562000136565b8280016001018555821562000136579182015b828111156200013557825182559160200191906001019062000118565b5b50905062000145919062000149565b5090565b5b80821115620001645760008160009055506001016200014a565b5090565b7f4e487b7100000000000000000000000000000000000000000000000000000000600052602260045260246000fd5b60006002820490506001821680620001b057607f821691505b60208210811415620001c757620001c662000168565b5b50919050565b612c0080620001dd6000396000f3fe608060405234801561001057600080fd5b50600436106101165760003560e01c806342842e0e116100a257806395d89b411161007157806395d89b41146102f3578063a22cb46514610311578063b88d4fde1461032d578063c87b56dd14610349578063e985e9c51461037957610116565b806342842e0e146102475780634f6ccce7146102635780636352211e1461029357806370a08231146102c357610116565b8063095ea7b3116100e9578063095ea7b3146101b75780631249c58b146101d357806318160ddd146101dd57806323b872dd146101fb5780632f745c591461021757610116565b806301ffc9a71461011b578063047fc9aa1461014b57806306fdde0314610169578063081812fc14610187575b600080fd5b61013560048036038101906101309190611b27565b6103a9565b6040516101429190611b6f565b60405180910390f35b6101536103bb565b6040516101609190611ba3565b60405180910390f35b6101716103c1565b60405161017e9190611c57565b60405180910390f35b6101a1600480360381019061019c9190611ca5565b610453565b6040516101ae9190611d13565b60405180910390f35b6101d160048036038101906101cc9190611d5a565b6104d8565b005b6101db6105f0565b005b6101e5610618565b6040516101f29190611ba3565b60405180910390f35b61021560048036038101906102109190611d9a565b610625565b005b610231600480360381019061022c9190611d5a565b610685565b60405161023e9190611ba3565b60405180910390f35b610261600480360381019061025c9190611d9a565b61072a565b005b61027d60048036038101906102789190611ca5565b61074a565b60405161028a9190611ba3565b60405180910390f35b6102ad60048036038101906102a89190611ca5565b6107bb565b6040516102ba9190611d13565b60405180910390f35b6102dd60048036038101906102d89190611ded565b61086d565b6040516102ea9190611ba3565b60405180910390f35b6102fb610925565b6040516103089190611c57565b60405180910390f35b61032b60048036038101906103269190611e46565b6109b7565b005b61034760048036038101906103429190611fbb565b6109cd565b005b610363600480360381019061035e9190611ca5565b610a2f565b6040516103709190611c57565b60405180910390f35b610393600480360381019061038e919061203e565b610a99565b6040516103a09190611b6f565b60405180910390f35b60006103b482610b2d565b9050919050565b600a5481565b6060600080546103d0906120ad565b80601f01602080910402602001604051908101604052809291908181526020018280546103fc906120ad565b80156104495780601f1061041e57610100808354040283529160200191610449565b820191906000526020600020905b81548152906001019060200180831161042c57829003601f168201915b5050505050905090565b600061045e82610ba7565b61049d576040517f08c379a000000000000000000000000000000000000000000000000000000000815260040161049490612151565b60405180910390fd5b6004600083815260200190815260200160002060009054906101000a900473ffffffffffffffffffffffffffffffffffffffff169050919050565b60006104e3826107bb565b90508073ffffffffffffffffffffffffffffffffffffffff168373ffffffffffffffffffffffffffffffffffffffff161415610554576040517f08c379a000000000000000000000000000000000000000000000000000000000815260040161054b906121e3565b60405180910390fd5b8073ffffffffffffffffffffffffffffffffffffffff16610573610c13565b73ffffffffffffffffffffffffffffffffffffffff1614806105a257506105a18161059c610c13565b610a99565b5b6105e1576040517f08c379a00000000000000000000000000000000000000000000000000000000081526004016105d890612275565b60405180910390fd5b6105eb8383610c1b565b505050565b6105fc33600a54610cd4565b6001600a600082825461060f91906122c4565b92505081905550565b6000600880549050905090565b610636610630610c13565b82610ea2565b610675576040517f08c379a000000000000000000000000000000000000000000000000000000000815260040161066c9061238c565b60405180910390fd5b610680838383610f80565b505050565b60006106908361086d565b82106106d1576040517f08c379a00000000000000000000000000000000000000000000000000000000081526004016106c89061241e565b60405180910390fd5b600660008473ffffffffffffffffffffffffffffffffffffffff1673ffffffffffffffffffffffffffffffffffffffff168152602001908152602001600020600083815260200190815260200160002054905092915050565b610745838383604051806020016040528060008152506109cd565b505050565b6000610754610618565b8210610795576040517f08c379a000000000000000000000000000000000000000000000000000000000815260040161078c906124b0565b60405180910390fd5b600882815481106107a9576107a86124d0565b5b90600052602060002001549050919050565b6000806002600084815260200190815260200160002060009054906101000a900473ffffffffffffffffffffffffffffffffffffffff169050600073ffffffffffffffffffffffffffffffffffffffff168173ffffffffffffffffffffffffffffffffffffffff161415610864576040517f08c379a000000000000000000000000000000000000000000000000000000000815260040161085b90612571565b60405180910390fd5b80915050919050565b60008073ffffffffffffffffffffffffffffffffffffffff168273ffffffffffffffffffffffffffffffffffffffff1614156108de576040517f08c379a00000000000000000000000000000000000000000000000000000000081526004016108d590612603565b60405180910390fd5b600360008373ffffffffffffffffffffffffffffffffffffffff1673ffffffffffffffffffffffffffffffffffffffff168152602001908152602001600020549050919050565b606060018054610934906120ad565b80601f0160208091040260200160405190810160405280929190818152602001828054610960906120ad565b80156109ad5780601f10610982576101008083540402835291602001916109ad565b820191906000526020600020905b81548152906001019060200180831161099057829003601f168201915b5050505050905090565b6109c96109c2610c13565b83836111dc565b5050565b6109de6109d8610c13565b83610ea2565b610a1d576040517f08c379a0000000000000000000000000000000000000000000000000000000008152600401610a149061238c565b60405180910390fd5b610a2984848484611349565b50505050565b6060610a3a82610ba7565b610a79576040517f08c379a0000000000000000000000000000000000000000000000000000000008152600401610a7090612695565b60405180910390fd5b604051806080016040528060438152602001612b88604391399050919050565b6000600560008473ffffffffffffffffffffffffffffffffffffffff1673ffffffffffffffffffffffffffffffffffffffff16815260200190815260200160002060008373ffffffffffffffffffffffffffffffffffffffff1673ffffffffffffffffffffffffffffffffffffffff16815260200190815260200160002060009054906101000a900460ff16905092915050565b60007f780e9d63000000000000000000000000000000000000000000000000000000007bffffffffffffffffffffffffffffffffffffffffffffffffffffffff1916827bffffffffffffffffffffffffffffffffffffffffffffffffffffffff19161480610ba05750610b9f826113a5565b5b9050919050565b60008073ffffffffffffffffffffffffffffffffffffffff166002600084815260200190815260200160002060009054906101000a900473ffffffffffffffffffffffffffffffffffffffff1673ffffffffffffffffffffffffffffffffffffffff1614159050919050565b600033905090565b816004600083815260200190815260200160002060006101000a81548173ffffffffffffffffffffffffffffffffffffffff021916908373ffffffffffffffffffffffffffffffffffffffff160217905550808273ffffffffffffffffffffffffffffffffffffffff16610c8e836107bb565b73ffffffffffffffffffffffffffffffffffffffff167f8c5be1e5ebec7d5bd14f71427d1e84f3dd0314c0f7b2291e5b200ac8c7c3b92560405160405180910390a45050565b600073ffffffffffffffffffffffffffffffffffffffff168273ffffffffffffffffffffffffffffffffffffffff161415610d44576040517f08c379a0000000000000000000000000000000000000000000000000000000008152600401610d3b90612701565b60405180910390fd5b610d4d81610ba7565b15610d8d576040517f08c379a0000000000000000000000000000000000000000000000000000000008152600401610d849061276d565b60405180910390fd5b610d9960008383611487565b6001600360008473ffffffffffffffffffffffffffffffffffffffff1673ffffffffffffffffffffffffffffffffffffffff1681526020019081526020016000206000828254610de991906122c4565b92505081905550816002600083815260200190815260200160002060006101000a81548173ffffffffffffffffffffffffffffffffffffffff021916908373ffffffffffffffffffffffffffffffffffffffff160217905550808273ffffffffffffffffffffffffffffffffffffffff16600073ffffffffffffffffffffffffffffffffffffffff167fddf252ad1be2c89b69c2b068fc378daa952ba7f163c4a11628f55a4df523b3ef60405160405180910390a45050565b6000610ead82610ba7565b610eec576040517f08c379a0000000000000000000000000000000000000000000000000000000008152600401610ee3906127ff565b60405180910390fd5b6000610ef7836107bb565b90508073ffffffffffffffffffffffffffffffffffffffff168473ffffffffffffffffffffffffffffffffffffffff161480610f6657508373ffffffffffffffffffffffffffffffffffffffff16610f4e84610453565b73ffffffffffffffffffffffffffffffffffffffff16145b80610f775750610f768185610a99565b5b91505092915050565b8273ffffffffffffffffffffffffffffffffffffffff16610fa0826107bb565b73ffffffffffffffffffffffffffffffffffffffff1614610ff6576040517f08c379a0000000000000000000000000000000000000000000000000000000008152600401610fed90612891565b60405180910390fd5b600073ffffffffffffffffffffffffffffffffffffffff168273ffffffffffffffffffffffffffffffffffffffff161415611066576040517f08c379a000000000000000000000000000000000000000000000000000000000815260040161105d90612923565b60405180910390fd5b611071838383611487565b61107c600082610c1b565b6001600360008573ffffffffffffffffffffffffffffffffffffffff1673ffffffffffffffffffffffffffffffffffffffff16815260200190815260200160002060008282546110cc9190612943565b925050819055506001600360008473ffffffffffffffffffffffffffffffffffffffff1673ffffffffffffffffffffffffffffffffffffffff168152602001908152602001600020600082825461112391906122c4565b92505081905550816002600083815260200190815260200160002060006101000a81548173ffffffffffffffffffffffffffffffffffffffff021916908373ffffffffffffffffffffffffffffffffffffffff160217905550808273ffffffffffffffffffffffffffffffffffffffff168473ffffffffffffffffffffffffffffffffffffffff167fddf252ad1be2c89b69c2b068fc378daa952ba7f163c4a11628f55a4df523b3ef60405160405180910390a4505050565b8173ffffffffffffffffffffffffffffffffffffffff168373ffffffffffffffffffffffffffffffffffffffff16141561124b576040517f08c379a0000000000000000000000000000000000000000000000000000000008152600401611242906129c3565b60405180910390fd5b80600560008573ffffffffffffffffffffffffffffffffffffffff1673ffffffffffffffffffffffffffffffffffffffff16815260200190815260200160002060008473ffffffffffffffffffffffffffffffffffffffff1673ffffffffffffffffffffffffffffffffffffffff16815260200190815260200160002060006101000a81548160ff0219169083151502179055508173ffffffffffffffffffffffffffffffffffffffff168373ffffffffffffffffffffffffffffffffffffffff167f17307eab39ab6107e8899845ad3d59bd9653f200f220920489ca2b5937696c318360405161133c9190611b6f565b60405180910390a3505050565b611354848484610f80565b61136084848484611497565b61139f576040517f08c379a000000000000000000000000000000000000000000000000000000000815260040161139690612a55565b60405180910390fd5b50505050565b60007f80ac58cd000000000000000000000000000000000000000000000000000000007bffffffffffffffffffffffffffffffffffffffffffffffffffffffff1916827bffffffffffffffffffffffffffffffffffffffffffffffffffffffff1916148061147057507f5b5e139f000000000000000000000000000000000000000000000000000000007bffffffffffffffffffffffffffffffffffffffffffffffffffffffff1916827bffffffffffffffffffffffffffffffffffffffffffffffffffffffff1916145b80611480575061147f8261161f565b5b9050919050565b611492838383611689565b505050565b60006114b88473ffffffffffffffffffffffffffffffffffffffff1661179d565b15611612578373ffffffffffffffffffffffffffffffffffffffff1663150b7a026114e1610c13565b8786866040518563ffffffff1660e01b81526004016115039493929190612aca565b6020604051808303816000875af192505050801561153f57506040513d601f19601f8201168201806040525081019061153c9190612b2b565b60015b6115c2573d806000811461156f576040519150601f19603f3d011682016040523d82523d6000602084013e611574565b606091505b506000815114156115ba576040517f08c379a00000000000000000000000000000000000000000000000000000000081526004016115b190612a55565b60405180910390fd5b805181602001fd5b63150b7a0260e01b7bffffffffffffffffffffffffffffffffffffffffffffffffffffffff1916817bffffffffffffffffffffffffffffffffffffffffffffffffffffffff191614915050611617565b600190505b949350505050565b60007f01ffc9a7000000000000000000000000000000000000000000000000000000007bffffffffffffffffffffffffffffffffffffffffffffffffffffffff1916827bffffffffffffffffffffffffffffffffffffffffffffffffffffffff1916149050919050565b6116948383836117b0565b600073ffffffffffffffffffffffffffffffffffffffff168373ffffffffffffffffffffffffffffffffffffffff1614156116d7576116d2816117b5565b611716565b8173ffffffffffffffffffffffffffffffffffffffff168373ffffffffffffffffffffffffffffffffffffffff16146117155761171483826117fe565b5b5b600073ffffffffffffffffffffffffffffffffffffffff168273ffffffffffffffffffffffffffffffffffffffff161415611759576117548161196b565b611798565b8273ffffffffffffffffffffffffffffffffffffffff168273ffffffffffffffffffffffffffffffffffffffff1614611797576117968282611a3c565b5b5b505050565b600080823b905060008111915050919050565b505050565b6008805490506009600083815260200190815260200160002081905550600881908060018154018082558091505060019003906000526020600020016000909190919091505550565b6000600161180b8461086d565b6118159190612943565b90506000600760008481526020019081526020016000205490508181146118fa576000600660008673ffffffffffffffffffffffffffffffffffffffff1673ffffffffffffffffffffffffffffffffffffffff168152602001908152602001600020600084815260200190815260200160002054905080600660008773ffffffffffffffffffffffffffffffffffffffff1673ffffffffffffffffffffffffffffffffffffffff168152602001908152602001600020600084815260200190815260200160002081905550816007600083815260200190815260200160002081905550505b6007600084815260200190815260200160002060009055600660008573ffffffffffffffffffffffffffffffffffffffff1673ffffffffffffffffffffffffffffffffffffffff16815260200190815260200160002060008381526020019081526020016000206000905550505050565b6000600160088054905061197f9190612943565b90506000600960008481526020019081526020016000205490506000600883815481106119af576119ae6124d0565b5b9060005260206000200154905080600883815481106119d1576119d06124d0565b5b906000526020600020018190555081600960008381526020019081526020016000208190555060096000858152602001908152602001600020600090556008805480611a2057611a1f612b58565b5b6001900381819060005260206000200160009055905550505050565b6000611a478361086d565b905081600660008573ffffffffffffffffffffffffffffffffffffffff1673ffffffffffffffffffffffffffffffffffffffff168152602001908152602001600020600083815260200190815260200160002081905550806007600084815260200190815260200160002081905550505050565b6000604051905090565b600080fd5b600080fd5b60007fffffffff0000000000000000000000000000000000000000000000000000000082169050919050565b611b0481611acf565b8114611b0f57600080fd5b50565b600081359050611b2181611afb565b92915050565b600060208284031215611b3d57611b3c611ac5565b5b6000611b4b84828501611b12565b91505092915050565b60008115159050919050565b611b6981611b54565b82525050565b6000602082019050611b846000830184611b60565b92915050565b6000819050919050565b611b9d81611b8a565b82525050565b6000602082019050611bb86000830184611b94565b92915050565b600081519050919050565b600082825260208201905092915050565b60005b83811015611bf8578082015181840152602081019050611bdd565b83811115611c07576000848401525b50505050565b6000601f19601f8301169050919050565b6000611c2982611bbe565b611c338185611bc9565b9350611c43818560208601611bda565b611c4c81611c0d565b840191505092915050565b60006020820190508181036000830152611c718184611c1e565b905092915050565b611c8281611b8a565b8114611c8d57600080fd5b50565b600081359050611c9f81611c79565b92915050565b600060208284031215611cbb57611cba611ac5565b5b6000611cc984828501611c90565b91505092915050565b600073ffffffffffffffffffffffffffffffffffffffff82169050919050565b6000611cfd82611cd2565b9050919050565b611d0d81611cf2565b82525050565b6000602082019050611d286000830184611d04565b92915050565b611d3781611cf2565b8114611d4257600080fd5b50565b600081359050611d5481611d2e565b92915050565b60008060408385031215611d7157611d70611ac5565b5b6000611d7f85828601611d45565b9250506020611d9085828601611c90565b9150509250929050565b600080600060608486031215611db357611db2611ac5565b5b6000611dc186828701611d45565b9350506020611dd286828701611d45565b9250506040611de386828701611c90565b9150509250925092565b600060208284031215611e0357611e02611ac5565b5b6000611e1184828501611d45565b91505092915050565b611e2381611b54565b8114611e2e57600080fd5b50565b600081359050611e4081611e1a565b92915050565b60008060408385031215611e5d57611e5c611ac5565b5b6000611e6b85828601611d45565b9250506020611e7c85828601611e31565b9150509250929050565b600080fd5b600080fd5b7f4e487b7100000000000000000000000000000000000000000000000000000000600052604160045260246000fd5b611ec882611c0d565b810181811067ffffffffffffffff82111715611ee757611ee6611e90565b5b80604052505050565b6000611efa611abb565b9050611f068282611ebf565b919050565b600067ffffffffffffffff821115611f2657611f25611e90565b5b611f2f82611c0d565b9050602081019050919050565b82818337600083830152505050565b6000611f5e611f5984611f0b565b611ef0565b905082815260208101848484011115611f7a57611f79611e8b565b5b611f85848285611f3c565b509392505050565b600082601f830112611fa257611fa1611e86565b5b8135611fb2848260208601611f4b565b91505092915050565b60008060008060808587031215611fd557611fd4611ac5565b5b6000611fe387828801611d45565b9450506020611ff487828801611d45565b935050604061200587828801611c90565b925050606085013567ffffffffffffffff81111561202657612025611aca565b5b61203287828801611f8d565b91505092959194509250565b6000806040838503121561205557612054611ac5565b5b600061206385828601611d45565b925050602061207485828601611d45565b9150509250929050565b7f4e487b7100000000000000000000000000000000000000000000000000000000600052602260045260246000fd5b600060028204905060018216806120c557607f821691505b602082108114156120d9576120d861207e565b5b50919050565b7f4552433732313a20617070726f76656420717565727920666f72206e6f6e657860008201527f697374656e7420746f6b656e0000000000000000000000000000000000000000602082015250565b600061213b602c83611bc9565b9150612146826120df565b604082019050919050565b6000602082019050818103600083015261216a8161212e565b9050919050565b7f4552433732313a20617070726f76616c20746f2063757272656e74206f776e6560008201527f7200000000000000000000000000000000000000000000000000000000000000602082015250565b60006121cd602183611bc9565b91506121d882612171565b604082019050919050565b600060208201905081810360008301526121fc816121c0565b9050919050565b7f4552433732313a20617070726f76652063616c6c6572206973206e6f74206f7760008201527f6e6572206e6f7220617070726f76656420666f7220616c6c0000000000000000602082015250565b600061225f603883611bc9565b915061226a82612203565b604082019050919050565b6000602082019050818103600083015261228e81612252565b9050919050565b7f4e487b7100000000000000000000000000000000000000000000000000000000600052601160045260246000fd5b60006122cf82611b8a565b91506122da83611b8a565b9250827fffffffffffffffffffffffffffffffffffffffffffffffffffffffffffffffff0382111561230f5761230e612295565b5b828201905092915050565b7f4552433732313a207472616e736665722063616c6c6572206973206e6f74206f60008201527f776e6572206e6f7220617070726f766564000000000000000000000000000000602082015250565b6000612376603183611bc9565b91506123818261231a565b604082019050919050565b600060208201905081810360008301526123a581612369565b9050919050565b7f455243373231456e756d657261626c653a206f776e657220696e646578206f7560008201527f74206f6620626f756e6473000000000000000000000000000000000000000000602082015250565b6000612408602b83611bc9565b9150612413826123ac565b604082019050919050565b60006020820190508181036000830152612437816123fb565b9050919050565b7f455243373231456e756d657261626c653a20676c6f62616c20696e646578206f60008201527f7574206f6620626f756e64730000000000000000000000000000000000000000602082015250565b600061249a602c83611bc9565b91506124a58261243e565b604082019050919050565b600060208201905081810360008301526124c98161248d565b9050919050565b7f4e487b7100000000000000000000000000000000000000000000000000000000600052603260045260246000fd5b7f4552433732313a206f776e657220717565727920666f72206e6f6e657869737460008201527f656e7420746f6b656e0000000000000000000000000000000000000000000000602082015250565b600061255b602983611bc9565b9150612566826124ff565b604082019050919050565b6000602082019050818103600083015261258a8161254e565b9050919050565b7f4552433732313a2062616c616e636520717565727920666f7220746865207a6560008201527f726f206164647265737300000000000000000000000000000000000000000000602082015250565b60006125ed602a83611bc9565b91506125f882612591565b604082019050919050565b6000602082019050818103600083015261261c816125e0565b9050919050565b7f4552433732314d657461646174613a2055524920717565727920666f72206e6f60008201527f6e6578697374656e7420746f6b656e0000000000000000000000000000000000602082015250565b600061267f602f83611bc9565b915061268a82612623565b604082019050919050565b600060208201905081810360008301526126ae81612672565b9050919050565b7f4552433732313a206d696e7420746f20746865207a65726f2061646472657373600082015250565b60006126eb602083611bc9565b91506126f6826126b5565b602082019050919050565b6000602082019050818103600083015261271a816126de565b9050919050565b7f4552433732313a20746f6b656e20616c7265616479206d696e74656400000000600082015250565b6000612757601c83611bc9565b915061276282612721565b602082019050919050565b600060208201905081810360008301526127868161274a565b9050919050565b7f4552433732313a206f70657261746f7220717565727920666f72206e6f6e657860008201527f697374656e7420746f6b656e0000000000000000000000000000000000000000602082015250565b60006127e9602c83611bc9565b91506127f48261278d565b604082019050919050565b60006020820190508181036000830152612818816127dc565b9050919050565b7f4552433732313a207472616e73666572206f6620746f6b656e2074686174206960008201527f73206e6f74206f776e0000000000000000000000000000000000000000000000602082015250565b600061287b602983611bc9565b91506128868261281f565b604082019050919050565b600060208201905081810360008301526128aa8161286e565b9050919050565b7f4552433732313a207472616e7366657220746f20746865207a65726f2061646460008201527f7265737300000000000000000000000000000000000000000000000000000000602082015250565b600061290d602483611bc9565b9150612918826128b1565b604082019050919050565b6000602082019050818103600083015261293c81612900565b9050919050565b600061294e82611b8a565b915061295983611b8a565b92508282101561296c5761296b612295565b5b828203905092915050565b7f4552433732313a20617070726f766520746f2063616c6c657200000000000000600082015250565b60006129ad601983611bc9565b91506129b882612977565b602082019050919050565b600060208201905081810360008301526129dc816129a0565b9050919050565b7f4552433732313a207472616e7366657220746f206e6f6e20455243373231526560008201527f63656976657220696d706c656d656e7465720000000000000000000000000000602082015250565b6000612a3f603283611bc9565b9150612a4a826129e3565b604082019050919050565b60006020820190508181036000830152612a6e81612a32565b9050919050565b600081519050919050565b600082825260208201905092915050565b6000612a9c82612a75565b612aa68185612a80565b9350612ab6818560208601611bda565b612abf81611c0d565b840191505092915050565b6000608082019050612adf6000830187611d04565b612aec6020830186611d04565b612af96040830185611b94565b8181036060830152612b0b8184612a91565b905095945050505050565b600081519050612b2581611afb565b92915050565b600060208284031215612b4157612b40611ac5565b5b6000612b4f84828501612b16565b91505092915050565b7f4e487b7100000000000000000000000000000000000000000000000000000000600052603160045260246000fdfe68747470733a2f2f697066732e696f2f697066732f516d59794a4e54616452614d7554426f3739366f41524d584a3843564e78444c793876383347556e663170634a4ca264697066735822122057416f15e606c8561d645e55c075d8466889bd53451f6e3e825c122aa057e0e764736f6c634300080a0033",
  "immutableReferences": {},
  "source": "// SPDX-License-Identifier: MIT\npragma solidity >=0.4.22 <0.9.0;\n\n\nimport \"../node_modules/@openzeppelin/contracts/token/ERC721/ERC721.sol\";\nimport \"../node_modules/@openzeppelin/contracts/token/ERC721/extensions/ERC721Enumerable.sol\";\n\ncontract LungoNFT is ERC721, ERC721Enumerable {\n  uint public supply;\n  constructor() ERC721(\"Lungo NFT\", \"LNG\") {}\n\n  function mint() public\n  {\n    _mint(msg.sender, supply);\n    supply += 1;\n  }\n\n  function tokenURI(uint256 tokenId) public view virtual override returns (string memory) {\n    require(_exists(tokenId), \"ERC721Metadata: URI query for nonexistent token\");\n    return \"https://ipfs.io/ipfs/QmYyJNTadRaMuTBo796oARMXJ8CVNxDLy8v83GUnf1pcJL\";\n  }\n\n  function supportsInterface(bytes4 interfaceId) public view override(ERC721, ERC721Enumerable) returns (bool)\n  {\n    return super.supportsInterface(interfaceId);\n  }\n\n  function _beforeTokenTransfer(address from, address to, uint256 tokenId) internal override(ERC721, ERC721Enumerable)\n  {\n    super._beforeTokenTransfer(from, to, tokenId);\n  }\n\n}",
  "sourcePath": "D:\\Programacion\\Blockchain\\lungo-token-nft\\nft-token-solidity\\contracts\\2.LungoNFT.sol",
  "compiler": {
    "name": "solc",
    "version": "0.8.10+commit.fc410830.Emscripten.clang"
  },
  "schemaVersion": "3.4.4",
  "updatedAt": "2022-01-17T19:43:32.587Z",
  "devdoc": {
    "kind": "dev",
    "methods": {
      "approve(address,uint256)": {
        "details": "See {IERC721-approve}."
      },
      "balanceOf(address)": {
        "details": "See {IERC721-balanceOf}."
      },
      "getApproved(uint256)": {
        "details": "See {IERC721-getApproved}."
      },
      "isApprovedForAll(address,address)": {
        "details": "See {IERC721-isApprovedForAll}."
      },
      "name()": {
        "details": "See {IERC721Metadata-name}."
      },
      "ownerOf(uint256)": {
        "details": "See {IERC721-ownerOf}."
      },
      "safeTransferFrom(address,address,uint256)": {
        "details": "See {IERC721-safeTransferFrom}."
      },
      "safeTransferFrom(address,address,uint256,bytes)": {
        "details": "See {IERC721-safeTransferFrom}."
      },
      "setApprovalForAll(address,bool)": {
        "details": "See {IERC721-setApprovalForAll}."
      },
      "symbol()": {
        "details": "See {IERC721Metadata-symbol}."
      },
      "tokenByIndex(uint256)": {
        "details": "See {IERC721Enumerable-tokenByIndex}."
      },
      "tokenOfOwnerByIndex(address,uint256)": {
        "details": "See {IERC721Enumerable-tokenOfOwnerByIndex}."
      },
      "tokenURI(uint256)": {
        "details": "See {IERC721Metadata-tokenURI}."
      },
      "totalSupply()": {
        "details": "See {IERC721Enumerable-totalSupply}."
      },
      "transferFrom(address,address,uint256)": {
        "details": "See {IERC721-transferFrom}."
      }
    },
    "version": 1
  },
  "userdoc": {
    "kind": "user",
    "methods": {},
    "version": 1
  }
}