{
  "contractName": "LungoToken",
  "abi": [
    {
      "inputs": [
        {
          "internalType": "string",
          "name": "name",
          "type": "string"
        },
        {
          "internalType": "string",
          "name": "symbol",
          "type": "string"
        },
        {
          "internalType": "uint256",
          "name": "initialSupply",
          "type": "uint256"
        }
      ],
      "stateMutability": "nonpayable",
      "type": "constructor"
    },
    {
      "anonymous": false,
      "inputs": [
        {
          "indexed": true,
          "internalType": "address",
          "name": "owner",
          "type": "address"
        },
        {
          "indexed": true,
          "internalType": "address",
          "name": "spender",
          "type": "address"
        },
        {
          "indexed": false,
          "internalType": "uint256",
          "name": "value",
          "type": "uint256"
        }
      ],
      "name": "Approval",
      "type": "event"
    },
    {
      "anonymous": false,
      "inputs": [
        {
          "indexed": true,
          "internalType": "address",
          "name": "previousOwner",
          "type": "address"
        },
        {
          "indexed": true,
          "internalType": "address",
          "name": "newOwner",
          "type": "address"
        }
      ],
      "name": "OwnershipTransferred",
      "type": "event"
    },
    {
      "anonymous": false,
      "inputs": [
        {
          "indexed": true,
          "internalType": "address",
          "name": "from",
          "type": "address"
        },
        {
          "indexed": true,
          "internalType": "address",
          "name": "to",
          "type": "address"
        },
        {
          "indexed": false,
          "internalType": "uint256",
          "name": "value",
          "type": "uint256"
        }
      ],
      "name": "Transfer",
      "type": "event"
    },
    {
      "inputs": [
        {
          "internalType": "address",
          "name": "owner",
          "type": "address"
        },
        {
          "internalType": "address",
          "name": "spender",
          "type": "address"
        }
      ],
      "name": "allowance",
      "outputs": [
        {
          "internalType": "uint256",
          "name": "",
          "type": "uint256"
        }
      ],
      "stateMutability": "view",
      "type": "function"
    },
    {
      "inputs": [
        {
          "internalType": "address",
          "name": "spender",
          "type": "address"
        },
        {
          "internalType": "uint256",
          "name": "amount",
          "type": "uint256"
        }
      ],
      "name": "approve",
      "outputs": [
        {
          "internalType": "bool",
          "name": "",
          "type": "bool"
        }
      ],
      "stateMutability": "nonpayable",
      "type": "function"
    },
    {
      "inputs": [
        {
          "internalType": "address",
          "name": "account",
          "type": "address"
        }
      ],
      "name": "balanceOf",
      "outputs": [
        {
          "internalType": "uint256",
          "name": "",
          "type": "uint256"
        }
      ],
      "stateMutability": "view",
      "type": "function"
    },
    {
      "inputs": [],
      "name": "decimals",
      "outputs": [
        {
          "internalType": "uint8",
          "name": "",
          "type": "uint8"
        }
      ],
      "stateMutability": "view",
      "type": "function"
    },
    {
      "inputs": [
        {
          "internalType": "address",
          "name": "spender",
          "type": "address"
        },
        {
          "internalType": "uint256",
          "name": "subtractedValue",
          "type": "uint256"
        }
      ],
      "name": "decreaseAllowance",
      "outputs": [
        {
          "internalType": "bool",
          "name": "",
          "type": "bool"
        }
      ],
      "stateMutability": "nonpayable",
      "type": "function"
    },
    {
      "inputs": [
        {
          "internalType": "address",
          "name": "spender",
          "type": "address"
        },
        {
          "internalType": "uint256",
          "name": "addedValue",
          "type": "uint256"
        }
      ],
      "name": "increaseAllowance",
      "outputs": [
        {
          "internalType": "bool",
          "name": "",
          "type": "bool"
        }
      ],
      "stateMutability": "nonpayable",
      "type": "function"
    },
    {
      "inputs": [],
      "name": "name",
      "outputs": [
        {
          "internalType": "string",
          "name": "",
          "type": "string"
        }
      ],
      "stateMutability": "view",
      "type": "function"
    },
    {
      "inputs": [],
      "name": "owner",
      "outputs": [
        {
          "internalType": "address payable",
          "name": "",
          "type": "address"
        }
      ],
      "stateMutability": "view",
      "type": "function"
    },
    {
      "inputs": [],
      "name": "symbol",
      "outputs": [
        {
          "internalType": "string",
          "name": "",
          "type": "string"
        }
      ],
      "stateMutability": "view",
      "type": "function"
    },
    {
      "inputs": [],
      "name": "totalSupply",
      "outputs": [
        {
          "internalType": "uint256",
          "name": "",
          "type": "uint256"
        }
      ],
      "stateMutability": "view",
      "type": "function"
    },
    {
      "inputs": [
        {
          "internalType": "address",
          "name": "recipient",
          "type": "address"
        },
        {
          "internalType": "uint256",
          "name": "amount",
          "type": "uint256"
        }
      ],
      "name": "transfer",
      "outputs": [
        {
          "internalType": "bool",
          "name": "",
          "type": "bool"
        }
      ],
      "stateMutability": "nonpayable",
      "type": "function"
    },
    {
      "inputs": [
        {
          "internalType": "address",
          "name": "sender",
          "type": "address"
        },
        {
          "internalType": "address",
          "name": "recipient",
          "type": "address"
        },
        {
          "internalType": "uint256",
          "name": "amount",
          "type": "uint256"
        }
      ],
      "name": "transferFrom",
      "outputs": [
        {
          "internalType": "bool",
          "name": "",
          "type": "bool"
        }
      ],
      "stateMutability": "nonpayable",
      "type": "function"
    },
    {
      "stateMutability": "payable",
      "type": "receive"
    },
    {
      "inputs": [
        {
          "internalType": "address",
          "name": "newOwner",
          "type": "address"
        }
      ],
      "name": "transferOwnership",
      "outputs": [],
      "stateMutability": "nonpayable",
      "type": "function"
    },
    {
      "inputs": [
        {
          "internalType": "address",
          "name": "account",
          "type": "address"
        },
        {
          "internalType": "uint256",
          "name": "amount",
          "type": "uint256"
        }
      ],
      "name": "mint",
      "outputs": [],
      "stateMutability": "nonpayable",
      "type": "function"
    },
    {
      "inputs": [
        {
          "internalType": "address",
          "name": "account",
          "type": "address"
        },
        {
          "internalType": "uint256",
          "name": "amount",
          "type": "uint256"
        }
      ],
      "name": "burn",
      "outputs": [],
      "stateMutability": "nonpayable",
      "type": "function"
    },
    {
      "inputs": [],
      "name": "withdrawLiquidity",
      "outputs": [],
      "stateMutability": "nonpayable",
      "type": "function"
    }
  ],
  "bytecode": "0x60806040523480156200001157600080fd5b506040516200285f3803806200285f833981810160405281019062000037919062000507565b82828160039080519060200190620000519291906200027f565b5080600490805190602001906200006a9291906200027f565b50505033600560006101000a81548173ffffffffffffffffffffffffffffffffffffffff021916908373ffffffffffffffffffffffffffffffffffffffff160217905550620000ea33620000c3620000f360201b60201c565b600a620000d1919062000731565b83620000de919062000782565b620000fc60201b60201c565b50505062000956565b60006012905090565b600073ffffffffffffffffffffffffffffffffffffffff168273ffffffffffffffffffffffffffffffffffffffff1614156200016f576040517f08c379a0000000000000000000000000000000000000000000000000000000008152600401620001669062000844565b60405180910390fd5b62000183600083836200027560201b60201c565b806002600082825462000197919062000866565b92505081905550806000808473ffffffffffffffffffffffffffffffffffffffff1673ffffffffffffffffffffffffffffffffffffffff1681526020019081526020016000206000828254620001ee919062000866565b925050819055508173ffffffffffffffffffffffffffffffffffffffff16600073ffffffffffffffffffffffffffffffffffffffff167fddf252ad1be2c89b69c2b068fc378daa952ba7f163c4a11628f55a4df523b3ef83604051620002559190620008d4565b60405180910390a362000271600083836200027a60201b60201c565b5050565b505050565b505050565b8280546200028d9062000920565b90600052602060002090601f016020900481019282620002b15760008555620002fd565b82601f10620002cc57805160ff1916838001178555620002fd565b82800160010185558215620002fd579182015b82811115620002fc578251825591602001919060010190620002df565b5b5090506200030c919062000310565b5090565b5b808211156200032b57600081600090555060010162000311565b5090565b6000604051905090565b600080fd5b600080fd5b600080fd5b600080fd5b6000601f19601f8301169050919050565b7f4e487b7100000000000000000000000000000000000000000000000000000000600052604160045260246000fd5b62000398826200034d565b810181811067ffffffffffffffff82111715620003ba57620003b96200035e565b5b80604052505050565b6000620003cf6200032f565b9050620003dd82826200038d565b919050565b600067ffffffffffffffff8211156200040057620003ff6200035e565b5b6200040b826200034d565b9050602081019050919050565b60005b83811015620004385780820151818401526020810190506200041b565b8381111562000448576000848401525b50505050565b6000620004656200045f84620003e2565b620003c3565b90508281526020810184848401111562000484576200048362000348565b5b6200049184828562000418565b509392505050565b600082601f830112620004b157620004b062000343565b5b8151620004c38482602086016200044e565b91505092915050565b6000819050919050565b620004e181620004cc565b8114620004ed57600080fd5b50565b6000815190506200050181620004d6565b92915050565b60008060006060848603121562000523576200052262000339565b5b600084015167ffffffffffffffff8111156200054457620005436200033e565b5b620005528682870162000499565b935050602084015167ffffffffffffffff8111156200057657620005756200033e565b5b620005848682870162000499565b92505060406200059786828701620004f0565b9150509250925092565b7f4e487b7100000000000000000000000000000000000000000000000000000000600052601160045260246000fd5b60008160011c9050919050565b6000808291508390505b60018511156200062f57808604811115620006075762000606620005a1565b5b6001851615620006175780820291505b80810290506200062785620005d0565b9450620005e7565b94509492505050565b6000826200064a57600190506200071d565b816200065a57600090506200071d565b81600181146200067357600281146200067e57620006b4565b60019150506200071d565b60ff841115620006935762000692620005a1565b5b8360020a915084821115620006ad57620006ac620005a1565b5b506200071d565b5060208310610133831016604e8410600b8410161715620006ee5782820a905083811115620006e857620006e7620005a1565b5b6200071d565b620006fd8484846001620005dd565b92509050818404811115620007175762000716620005a1565b5b81810290505b9392505050565b600060ff82169050919050565b60006200073e82620004cc565b91506200074b8362000724565b92506200077a7fffffffffffffffffffffffffffffffffffffffffffffffffffffffffffffffff848462000638565b905092915050565b60006200078f82620004cc565b91506200079c83620004cc565b9250817fffffffffffffffffffffffffffffffffffffffffffffffffffffffffffffffff0483118215151615620007d857620007d7620005a1565b5b828202905092915050565b600082825260208201905092915050565b7f45524332303a206d696e7420746f20746865207a65726f206164647265737300600082015250565b60006200082c601f83620007e3565b91506200083982620007f4565b602082019050919050565b600060208201905081810360008301526200085f816200081d565b9050919050565b60006200087382620004cc565b91506200088083620004cc565b9250827fffffffffffffffffffffffffffffffffffffffffffffffffffffffffffffffff03821115620008b857620008b7620005a1565b5b828201905092915050565b620008ce81620004cc565b82525050565b6000602082019050620008eb6000830184620008c3565b92915050565b7f4e487b7100000000000000000000000000000000000000000000000000000000600052602260045260246000fd5b600060028204905060018216806200093957607f821691505b6020821081141562000950576200094f620008f1565b5b50919050565b611ef980620009666000396000f3fe6080604052600436106100f75760003560e01c80637ea382c11161008a578063a457c2d711610059578063a457c2d714610345578063a9059cbb14610382578063dd62ed3e146103bf578063f2fde38b146103fc5761010c565b80637ea382c1146102af5780638da5cb5b146102c657806395d89b41146102f15780639dc29fac1461031c5761010c565b8063313ce567116100c6578063313ce567146101e1578063395093511461020c57806340c10f191461024957806370a08231146102725761010c565b806306fdde0314610111578063095ea7b31461013c57806318160ddd1461017957806323b872dd146101a45761010c565b3661010c57600034101561010a57600080fd5b005b600080fd5b34801561011d57600080fd5b50610126610425565b60405161013391906113fd565b60405180910390f35b34801561014857600080fd5b50610163600480360381019061015e91906114b8565b6104b7565b6040516101709190611513565b60405180910390f35b34801561018557600080fd5b5061018e6104d5565b60405161019b919061153d565b60405180910390f35b3480156101b057600080fd5b506101cb60048036038101906101c69190611558565b6104df565b6040516101d89190611513565b60405180910390f35b3480156101ed57600080fd5b506101f66105d7565b60405161020391906115c7565b60405180910390f35b34801561021857600080fd5b50610233600480360381019061022e91906114b8565b6105e0565b6040516102409190611513565b60405180910390f35b34801561025557600080fd5b50610270600480360381019061026b91906114b8565b61068c565b005b34801561027e57600080fd5b50610299600480360381019061029491906115e2565b61069a565b6040516102a6919061153d565b60405180910390f35b3480156102bb57600080fd5b506102c46106e2565b005b3480156102d257600080fd5b506102db6107dd565b6040516102e89190611630565b60405180910390f35b3480156102fd57600080fd5b50610306610803565b60405161031391906113fd565b60405180910390f35b34801561032857600080fd5b50610343600480360381019061033e91906114b8565b610895565b005b34801561035157600080fd5b5061036c600480360381019061036791906114b8565b610911565b6040516103799190611513565b60405180910390f35b34801561038e57600080fd5b506103a960048036038101906103a491906114b8565b6109fc565b6040516103b69190611513565b60405180910390f35b3480156103cb57600080fd5b506103e660048036038101906103e1919061164b565b610a1a565b6040516103f3919061153d565b60405180910390f35b34801561040857600080fd5b50610423600480360381019061041e91906115e2565b610aa1565b005b606060038054610434906116ba565b80601f0160208091040260200160405190810160405280929190818152602001828054610460906116ba565b80156104ad5780601f10610482576101008083540402835291602001916104ad565b820191906000526020600020905b81548152906001019060200180831161049057829003601f168201915b5050505050905090565b60006104cb6104c4610bcf565b8484610bd7565b6001905092915050565b6000600254905090565b60006104ec848484610da2565b6000600160008673ffffffffffffffffffffffffffffffffffffffff1673ffffffffffffffffffffffffffffffffffffffff1681526020019081526020016000206000610537610bcf565b73ffffffffffffffffffffffffffffffffffffffff1673ffffffffffffffffffffffffffffffffffffffff168152602001908152602001600020549050828110156105b7576040517f08c379a00000000000000000000000000000000000000000000000000000000081526004016105ae9061175e565b60405180910390fd5b6105cb856105c3610bcf565b858403610bd7565b60019150509392505050565b60006012905090565b60006106826105ed610bcf565b8484600160006105fb610bcf565b73ffffffffffffffffffffffffffffffffffffffff1673ffffffffffffffffffffffffffffffffffffffff16815260200190815260200160002060008873ffffffffffffffffffffffffffffffffffffffff1673ffffffffffffffffffffffffffffffffffffffff1681526020019081526020016000205461067d91906117ad565b610bd7565b6001905092915050565b6106968282611023565b5050565b60008060008373ffffffffffffffffffffffffffffffffffffffff1673ffffffffffffffffffffffffffffffffffffffff168152602001908152602001600020549050919050565b600560009054906101000a900473ffffffffffffffffffffffffffffffffffffffff1673ffffffffffffffffffffffffffffffffffffffff163373ffffffffffffffffffffffffffffffffffffffff1614610772576040517f08c379a000000000000000000000000000000000000000000000000000000000815260040161076990611875565b60405180910390fd5b600560009054906101000a900473ffffffffffffffffffffffffffffffffffffffff1673ffffffffffffffffffffffffffffffffffffffff166108fc479081150290604051600060405180830381858888f193505050501580156107da573d6000803e3d6000fd5b50565b600560009054906101000a900473ffffffffffffffffffffffffffffffffffffffff1681565b606060048054610812906116ba565b80601f016020809104026020016040519081016040528092919081815260200182805461083e906116ba565b801561088b5780601f106108605761010080835404028352916020019161088b565b820191906000526020600020905b81548152906001019060200180831161086e57829003601f168201915b5050505050905090565b8173ffffffffffffffffffffffffffffffffffffffff163373ffffffffffffffffffffffffffffffffffffffff1614610903576040517f08c379a00000000000000000000000000000000000000000000000000000000081526004016108fa906118e1565b60405180910390fd5b61090d8282611183565b5050565b60008060016000610920610bcf565b73ffffffffffffffffffffffffffffffffffffffff1673ffffffffffffffffffffffffffffffffffffffff16815260200190815260200160002060008573ffffffffffffffffffffffffffffffffffffffff1673ffffffffffffffffffffffffffffffffffffffff168152602001908152602001600020549050828110156109dd576040517f08c379a00000000000000000000000000000000000000000000000000000000081526004016109d490611973565b60405180910390fd5b6109f16109e8610bcf565b85858403610bd7565b600191505092915050565b6000610a10610a09610bcf565b8484610da2565b6001905092915050565b6000600160008473ffffffffffffffffffffffffffffffffffffffff1673ffffffffffffffffffffffffffffffffffffffff16815260200190815260200160002060008373ffffffffffffffffffffffffffffffffffffffff1673ffffffffffffffffffffffffffffffffffffffff16815260200190815260200160002054905092915050565b600560009054906101000a900473ffffffffffffffffffffffffffffffffffffffff1673ffffffffffffffffffffffffffffffffffffffff163373ffffffffffffffffffffffffffffffffffffffff1614610b31576040517f08c379a0000000000000000000000000000000000000000000000000000000008152600401610b2890611a05565b60405180910390fd5b80600560006101000a81548173ffffffffffffffffffffffffffffffffffffffff021916908373ffffffffffffffffffffffffffffffffffffffff1602179055508073ffffffffffffffffffffffffffffffffffffffff163373ffffffffffffffffffffffffffffffffffffffff167f8be0079c531659141344cd1fd0a4f28419497f9722a3daafe3b4186f6b6457e060405160405180910390a350565b600033905090565b600073ffffffffffffffffffffffffffffffffffffffff168373ffffffffffffffffffffffffffffffffffffffff161415610c47576040517f08c379a0000000000000000000000000000000000000000000000000000000008152600401610c3e90611a97565b60405180910390fd5b600073ffffffffffffffffffffffffffffffffffffffff168273ffffffffffffffffffffffffffffffffffffffff161415610cb7576040517f08c379a0000000000000000000000000000000000000000000000000000000008152600401610cae90611b29565b60405180910390fd5b80600160008573ffffffffffffffffffffffffffffffffffffffff1673ffffffffffffffffffffffffffffffffffffffff16815260200190815260200160002060008473ffffffffffffffffffffffffffffffffffffffff1673ffffffffffffffffffffffffffffffffffffffff168152602001908152602001600020819055508173ffffffffffffffffffffffffffffffffffffffff168373ffffffffffffffffffffffffffffffffffffffff167f8c5be1e5ebec7d5bd14f71427d1e84f3dd0314c0f7b2291e5b200ac8c7c3b92583604051610d95919061153d565b60405180910390a3505050565b600073ffffffffffffffffffffffffffffffffffffffff168373ffffffffffffffffffffffffffffffffffffffff161415610e12576040517f08c379a0000000000000000000000000000000000000000000000000000000008152600401610e0990611bbb565b60405180910390fd5b600073ffffffffffffffffffffffffffffffffffffffff168273ffffffffffffffffffffffffffffffffffffffff161415610e82576040517f08c379a0000000000000000000000000000000000000000000000000000000008152600401610e7990611c4d565b60405180910390fd5b610e8d83838361135a565b60008060008573ffffffffffffffffffffffffffffffffffffffff1673ffffffffffffffffffffffffffffffffffffffff16815260200190815260200160002054905081811015610f13576040517f08c379a0000000000000000000000000000000000000000000000000000000008152600401610f0a90611cdf565b60405180910390fd5b8181036000808673ffffffffffffffffffffffffffffffffffffffff1673ffffffffffffffffffffffffffffffffffffffff16815260200190815260200160002081905550816000808573ffffffffffffffffffffffffffffffffffffffff1673ffffffffffffffffffffffffffffffffffffffff1681526020019081526020016000206000828254610fa691906117ad565b925050819055508273ffffffffffffffffffffffffffffffffffffffff168473ffffffffffffffffffffffffffffffffffffffff167fddf252ad1be2c89b69c2b068fc378daa952ba7f163c4a11628f55a4df523b3ef8460405161100a919061153d565b60405180910390a361101d84848461135f565b50505050565b600073ffffffffffffffffffffffffffffffffffffffff168273ffffffffffffffffffffffffffffffffffffffff161415611093576040517f08c379a000000000000000000000000000000000000000000000000000000000815260040161108a90611d4b565b60405180910390fd5b61109f6000838361135a565b80600260008282546110b191906117ad565b92505081905550806000808473ffffffffffffffffffffffffffffffffffffffff1673ffffffffffffffffffffffffffffffffffffffff168152602001908152602001600020600082825461110691906117ad565b925050819055508173ffffffffffffffffffffffffffffffffffffffff16600073ffffffffffffffffffffffffffffffffffffffff167fddf252ad1be2c89b69c2b068fc378daa952ba7f163c4a11628f55a4df523b3ef8360405161116b919061153d565b60405180910390a361117f6000838361135f565b5050565b600073ffffffffffffffffffffffffffffffffffffffff168273ffffffffffffffffffffffffffffffffffffffff1614156111f3576040517f08c379a00000000000000000000000000000000000000000000000000000000081526004016111ea90611ddd565b60405180910390fd5b6111ff8260008361135a565b60008060008473ffffffffffffffffffffffffffffffffffffffff1673ffffffffffffffffffffffffffffffffffffffff16815260200190815260200160002054905081811015611285576040517f08c379a000000000000000000000000000000000000000000000000000000000815260040161127c90611e6f565b60405180910390fd5b8181036000808573ffffffffffffffffffffffffffffffffffffffff1673ffffffffffffffffffffffffffffffffffffffff1681526020019081526020016000208190555081600260008282546112dc9190611e8f565b92505081905550600073ffffffffffffffffffffffffffffffffffffffff168373ffffffffffffffffffffffffffffffffffffffff167fddf252ad1be2c89b69c2b068fc378daa952ba7f163c4a11628f55a4df523b3ef84604051611341919061153d565b60405180910390a36113558360008461135f565b505050565b505050565b505050565b600081519050919050565b600082825260208201905092915050565b60005b8381101561139e578082015181840152602081019050611383565b838111156113ad576000848401525b50505050565b6000601f19601f8301169050919050565b60006113cf82611364565b6113d9818561136f565b93506113e9818560208601611380565b6113f2816113b3565b840191505092915050565b6000602082019050818103600083015261141781846113c4565b905092915050565b600080fd5b600073ffffffffffffffffffffffffffffffffffffffff82169050919050565b600061144f82611424565b9050919050565b61145f81611444565b811461146a57600080fd5b50565b60008135905061147c81611456565b92915050565b6000819050919050565b61149581611482565b81146114a057600080fd5b50565b6000813590506114b28161148c565b92915050565b600080604083850312156114cf576114ce61141f565b5b60006114dd8582860161146d565b92505060206114ee858286016114a3565b9150509250929050565b60008115159050919050565b61150d816114f8565b82525050565b60006020820190506115286000830184611504565b92915050565b61153781611482565b82525050565b6000602082019050611552600083018461152e565b92915050565b6000806000606084860312156115715761157061141f565b5b600061157f8682870161146d565b93505060206115908682870161146d565b92505060406115a1868287016114a3565b9150509250925092565b600060ff82169050919050565b6115c1816115ab565b82525050565b60006020820190506115dc60008301846115b8565b92915050565b6000602082840312156115f8576115f761141f565b5b60006116068482850161146d565b91505092915050565b600061161a82611424565b9050919050565b61162a8161160f565b82525050565b60006020820190506116456000830184611621565b92915050565b600080604083850312156116625761166161141f565b5b60006116708582860161146d565b92505060206116818582860161146d565b9150509250929050565b7f4e487b7100000000000000000000000000000000000000000000000000000000600052602260045260246000fd5b600060028204905060018216806116d257607f821691505b602082108114156116e6576116e561168b565b5b50919050565b7f45524332303a207472616e7366657220616d6f756e742065786365656473206160008201527f6c6c6f77616e6365000000000000000000000000000000000000000000000000602082015250565b600061174860288361136f565b9150611753826116ec565b604082019050919050565b600060208201905081810360008301526117778161173b565b9050919050565b7f4e487b7100000000000000000000000000000000000000000000000000000000600052601160045260246000fd5b60006117b882611482565b91506117c383611482565b9250827fffffffffffffffffffffffffffffffffffffffffffffffffffffffffffffffff038211156117f8576117f761177e565b5b828201905092915050565b7f4f6e6c7920746865206f776e65722063616e207769746864726177206c69717560008201527f6964697479000000000000000000000000000000000000000000000000000000602082015250565b600061185f60258361136f565b915061186a82611803565b604082019050919050565b6000602082019050818103600083015261188e81611852565b9050919050565b7f4f6e6c7920746865206f776e65722063616e206275726e20746f6b656e730000600082015250565b60006118cb601e8361136f565b91506118d682611895565b602082019050919050565b600060208201905081810360008301526118fa816118be565b9050919050565b7f45524332303a2064656372656173656420616c6c6f77616e63652062656c6f7760008201527f207a65726f000000000000000000000000000000000000000000000000000000602082015250565b600061195d60258361136f565b915061196882611901565b604082019050919050565b6000602082019050818103600083015261198c81611950565b9050919050565b7f4f6e6c79206f776e65722063616e207472616e73666572206f776e657273686960008201527f7000000000000000000000000000000000000000000000000000000000000000602082015250565b60006119ef60218361136f565b91506119fa82611993565b604082019050919050565b60006020820190508181036000830152611a1e816119e2565b9050919050565b7f45524332303a20617070726f76652066726f6d20746865207a65726f2061646460008201527f7265737300000000000000000000000000000000000000000000000000000000602082015250565b6000611a8160248361136f565b9150611a8c82611a25565b604082019050919050565b60006020820190508181036000830152611ab081611a74565b9050919050565b7f45524332303a20617070726f766520746f20746865207a65726f20616464726560008201527f7373000000000000000000000000000000000000000000000000000000000000602082015250565b6000611b1360228361136f565b9150611b1e82611ab7565b604082019050919050565b60006020820190508181036000830152611b4281611b06565b9050919050565b7f45524332303a207472616e736665722066726f6d20746865207a65726f20616460008201527f6472657373000000000000000000000000000000000000000000000000000000602082015250565b6000611ba560258361136f565b9150611bb082611b49565b604082019050919050565b60006020820190508181036000830152611bd481611b98565b9050919050565b7f45524332303a207472616e7366657220746f20746865207a65726f206164647260008201527f6573730000000000000000000000000000000000000000000000000000000000602082015250565b6000611c3760238361136f565b9150611c4282611bdb565b604082019050919050565b60006020820190508181036000830152611c6681611c2a565b9050919050565b7f45524332303a207472616e7366657220616d6f756e742065786365656473206260008201527f616c616e63650000000000000000000000000000000000000000000000000000602082015250565b6000611cc960268361136f565b9150611cd482611c6d565b604082019050919050565b60006020820190508181036000830152611cf881611cbc565b9050919050565b7f45524332303a206d696e7420746f20746865207a65726f206164647265737300600082015250565b6000611d35601f8361136f565b9150611d4082611cff565b602082019050919050565b60006020820190508181036000830152611d6481611d28565b9050919050565b7f45524332303a206275726e2066726f6d20746865207a65726f2061646472657360008201527f7300000000000000000000000000000000000000000000000000000000000000602082015250565b6000611dc760218361136f565b9150611dd282611d6b565b604082019050919050565b60006020820190508181036000830152611df681611dba565b9050919050565b7f45524332303a206275726e20616d6f756e7420657863656564732062616c616e60008201527f6365000000000000000000000000000000000000000000000000000000000000602082015250565b6000611e5960228361136f565b9150611e6482611dfd565b604082019050919050565b60006020820190508181036000830152611e8881611e4c565b9050919050565b6000611e9a82611482565b9150611ea583611482565b925082821015611eb857611eb761177e565b5b82820390509291505056fea264697066735822122094ef0d907d411141493e53d515ba38e243e2556189f3512ac4d1f26513b7c36064736f6c634300080a0033",
  "immutableReferences": {},
  "source": "// SPDX-License-Identifier: MIT\r\npragma solidity >=0.4.22 <0.9.0;\r\n\r\nimport \"../node_modules/@openzeppelin/contracts/token/ERC20/ERC20.sol\";\r\nimport \"../node_modules/@openzeppelin/contracts/utils/math/SafeMath.sol\";\r\n\r\n// ----------------------------------------------------------------------------\r\n// Sample token contract\r\n//\r\n// Symbol        : LUN\r\n// Name          : Lungo Token\r\n// Total supply  : 1000000000\r\n// Decimals      : 18\r\n// Owner Account : 0x5970Ce3208422CA7bf971ABf43FFb742693777ED\r\n//\r\n// ----------------------------------------------------------------------------\r\n\r\ncontract LungoToken is ERC20 {\r\n    using SafeMath for uint256;\r\n        \r\n    address payable public owner;\r\n    \r\n    event OwnershipTransferred(address indexed previousOwner, address indexed newOwner);\r\n\r\n    constructor(string memory name, string memory symbol, uint256 initialSupply) ERC20(name, symbol){\r\n      owner = payable(msg.sender);\r\n        _mint(msg.sender, initialSupply * 10 ** decimals());\r\n    }\r\n\r\n    //transfer owner to new owner\r\n    function transferOwnership(address newOwner) public {\r\n        require(msg.sender == owner, \"Only owner can transfer ownership\");\r\n        owner = payable(newOwner);\r\n        emit OwnershipTransferred(msg.sender, newOwner);\r\n    }\r\n\r\n     function mint(address account, uint256 amount) public {\r\n    _mint(account, amount);\r\n  }\r\n\r\n  function burn(address account, uint256 amount) public {\r\n    require(msg.sender == account, 'Only the owner can burn tokens');\r\n    _burn(account, amount);\r\n  }\r\n  \r\n  function withdrawLiquidity() public {\r\n    require(msg.sender == owner, 'Only the owner can withdraw liquidity');\r\n    owner.transfer(address(this).balance);    \r\n\r\n  }\r\n\r\n  receive() external payable {\r\n    require(msg.value >= 0);\r\n\r\n  }\r\n\r\n}",
  "sourcePath": "D:\\Programacion\\Blockchain\\lungo-token-nft\\nft-token-solidity\\contracts\\4.LungoToken.sol",
  "compiler": {
    "name": "solc",
    "version": "0.8.10+commit.fc410830.Emscripten.clang"
  },
  "schemaVersion": "3.4.4",
  "updatedAt": "2022-01-17T19:43:32.604Z",
  "devdoc": {
    "kind": "dev",
    "methods": {
      "allowance(address,address)": {
        "details": "See {IERC20-allowance}."
      },
      "approve(address,uint256)": {
        "details": "See {IERC20-approve}. Requirements: - `spender` cannot be the zero address."
      },
      "balanceOf(address)": {
        "details": "See {IERC20-balanceOf}."
      },
      "decimals()": {
        "details": "Returns the number of decimals used to get its user representation. For example, if `decimals` equals `2`, a balance of `505` tokens should be displayed to a user as `5.05` (`505 / 10 ** 2`). Tokens usually opt for a value of 18, imitating the relationship between Ether and Wei. This is the value {ERC20} uses, unless this function is overridden; NOTE: This information is only used for _display_ purposes: it in no way affects any of the arithmetic of the contract, including {IERC20-balanceOf} and {IERC20-transfer}."
      },
      "decreaseAllowance(address,uint256)": {
        "details": "Atomically decreases the allowance granted to `spender` by the caller. This is an alternative to {approve} that can be used as a mitigation for problems described in {IERC20-approve}. Emits an {Approval} event indicating the updated allowance. Requirements: - `spender` cannot be the zero address. - `spender` must have allowance for the caller of at least `subtractedValue`."
      },
      "increaseAllowance(address,uint256)": {
        "details": "Atomically increases the allowance granted to `spender` by the caller. This is an alternative to {approve} that can be used as a mitigation for problems described in {IERC20-approve}. Emits an {Approval} event indicating the updated allowance. Requirements: - `spender` cannot be the zero address."
      },
      "name()": {
        "details": "Returns the name of the token."
      },
      "symbol()": {
        "details": "Returns the symbol of the token, usually a shorter version of the name."
      },
      "totalSupply()": {
        "details": "See {IERC20-totalSupply}."
      },
      "transfer(address,uint256)": {
        "details": "See {IERC20-transfer}. Requirements: - `recipient` cannot be the zero address. - the caller must have a balance of at least `amount`."
      },
      "transferFrom(address,address,uint256)": {
        "details": "See {IERC20-transferFrom}. Emits an {Approval} event indicating the updated allowance. This is not required by the EIP. See the note at the beginning of {ERC20}. Requirements: - `sender` and `recipient` cannot be the zero address. - `sender` must have a balance of at least `amount`. - the caller must have allowance for ``sender``'s tokens of at least `amount`."
      }
    },
    "version": 1
  },
  "userdoc": {
    "kind": "user",
    "methods": {},
    "version": 1
  }
}