{
  "contractName": "MarketNFT",
  "abi": [
    {
      "inputs": [],
      "name": "listing_count",
      "outputs": [
        {
          "internalType": "uint256",
          "name": "",
          "type": "uint256"
        }
      ],
      "stateMutability": "view",
      "type": "function"
    },
    {
      "inputs": [
        {
          "internalType": "uint256",
          "name": "",
          "type": "uint256"
        }
      ],
      "name": "listings",
      "outputs": [
        {
          "internalType": "address",
          "name": "owner",
          "type": "address"
        },
        {
          "internalType": "bool",
          "name": "is_active",
          "type": "bool"
        },
        {
          "internalType": "uint256",
          "name": "token_id",
          "type": "uint256"
        },
        {
          "internalType": "uint256",
          "name": "price",
          "type": "uint256"
        }
      ],
      "stateMutability": "view",
      "type": "function"
    },
    {
      "inputs": [
        {
          "internalType": "uint256",
          "name": "token_id",
          "type": "uint256"
        },
        {
          "internalType": "uint256",
          "name": "price",
          "type": "uint256"
        }
      ],
      "name": "addListing",
      "outputs": [],
      "stateMutability": "nonpayable",
      "type": "function"
    },
    {
      "inputs": [
        {
          "internalType": "uint256",
          "name": "listing_id",
          "type": "uint256"
        }
      ],
      "name": "removeListing",
      "outputs": [],
      "stateMutability": "nonpayable",
      "type": "function"
    },
    {
      "inputs": [
        {
          "internalType": "uint256",
          "name": "listing_id",
          "type": "uint256"
        }
      ],
      "name": "buy",
      "outputs": [],
      "stateMutability": "nonpayable",
      "type": "function"
    },
    {
      "inputs": [
        {
          "internalType": "uint256",
          "name": "index",
          "type": "uint256"
        }
      ],
      "name": "getActiveListings",
      "outputs": [
        {
          "internalType": "uint256",
          "name": "",
          "type": "uint256"
        }
      ],
      "stateMutability": "view",
      "type": "function"
    },
    {
      "inputs": [
        {
          "internalType": "address",
          "name": "owner",
          "type": "address"
        },
        {
          "internalType": "uint256",
          "name": "index",
          "type": "uint256"
        }
      ],
      "name": "getListingsByOwner",
      "outputs": [
        {
          "internalType": "uint256",
          "name": "",
          "type": "uint256"
        }
      ],
      "stateMutability": "view",
      "type": "function"
    },
    {
      "inputs": [
        {
          "internalType": "address",
          "name": "owner",
          "type": "address"
        }
      ],
      "name": "getListingsByOwnerCount",
      "outputs": [
        {
          "internalType": "uint256",
          "name": "",
          "type": "uint256"
        }
      ],
      "stateMutability": "view",
      "type": "function"
    },
    {
      "inputs": [],
      "name": "getActiveListingsCount",
      "outputs": [
        {
          "internalType": "uint256",
          "name": "",
          "type": "uint256"
        }
      ],
      "stateMutability": "view",
      "type": "function"
    }
  ],
  "bytecode": "0x608060405260006001557317db5ed08064445ce0c3f2b452b4bfa3d93a71f4600360006101000a81548173ffffffffffffffffffffffffffffffffffffffff021916908373ffffffffffffffffffffffffffffffffffffffff16021790555073fb13b339a00a821034e0010080870fcec9d289ca600460006101000a81548173ffffffffffffffffffffffffffffffffffffffff021916908373ffffffffffffffffffffffffffffffffffffffff1602179055503480156100bf57600080fd5b50600160008190555061107c806100d76000396000f3fe608060405234801561001057600080fd5b50600436106100935760003560e01c8063836cf6e911610066578063836cf6e914610120578063a4dae2861461013c578063d96a094a1461016c578063de74e57b14610188578063e6987501146101bb57610093565b8063479ad4c3146100985780635dcd4015146100b45780637b55927c146100d25780637c499bfa146100f0575b600080fd5b6100b260048036038101906100ad9190610bc2565b6101eb565b005b6100bc610421565b6040516100c99190610bfe565b60405180910390f35b6100da610427565b6040516100e79190610bfe565b60405180910390f35b61010a60048036038101906101059190610c77565b61048b565b6040516101179190610bfe565b60405180910390f35b61013a60048036038101906101359190610cb7565b610573565b005b61015660048036038101906101519190610cf7565b610746565b6040516101639190610bfe565b60405180910390f35b61018660048036038101906101819190610bc2565b610819565b005b6101a2600480360381019061019d9190610bc2565b610a9a565b6040516101b29493929190610d4e565b60405180910390f35b6101d560048036038101906101d09190610bc2565b610af7565b6040516101e29190610bfe565b60405180910390f35b60026000541415610231576040517f08c379a000000000000000000000000000000000000000000000000000000000815260040161022890610df0565b60405180910390fd5b60026000819055503373ffffffffffffffffffffffffffffffffffffffff166002600083815260200190815260200160002060000160009054906101000a900473ffffffffffffffffffffffffffffffffffffffff1673ffffffffffffffffffffffffffffffffffffffff16146102dd576040517f08c379a00000000000000000000000000000000000000000000000000000000081526004016102d490610e5c565b60405180910390fd5b6002600082815260200190815260200160002060000160149054906101000a900460ff16610340576040517f08c379a000000000000000000000000000000000000000000000000000000000815260040161033790610ec8565b60405180910390fd5b60006002600083815260200190815260200160002060000160146101000a81548160ff021916908315150217905550600360009054906101000a900473ffffffffffffffffffffffffffffffffffffffff1673ffffffffffffffffffffffffffffffffffffffff166323b872dd303360026000868152602001908152602001600020600101546040518463ffffffff1660e01b81526004016103e493929190610ee8565b600060405180830381600087803b1580156103fe57600080fd5b505af1158015610412573d6000803e3d6000fd5b50505050600160008190555050565b60015481565b60008060005b600154811015610483576002600082815260200190815260200160002060000160149054906101000a900460ff16156104705760018261046d9190610f4e565b91505b808061047b90610fa4565b91505061042d565b508091505090565b60008060005b600154811015610566576002600082815260200190815260200160002060000160149054906101000a900460ff16801561052c57508473ffffffffffffffffffffffffffffffffffffffff166002600083815260200190815260200160002060000160009054906101000a900473ffffffffffffffffffffffffffffffffffffffff1673ffffffffffffffffffffffffffffffffffffffff16145b15610553578184141561054357809250505061056d565b6001826105509190610f4e565b91505b808061055e90610fa4565b915050610491565b5060009150505b92915050565b600260005414156105b9576040517f08c379a00000000000000000000000000000000000000000000000000000000081526004016105b090610df0565b60405180910390fd5b600260008190555060405180608001604052803373ffffffffffffffffffffffffffffffffffffffff1681526020016001151581526020018381526020018281525060026000600154815260200190815260200160002060008201518160000160006101000a81548173ffffffffffffffffffffffffffffffffffffffff021916908373ffffffffffffffffffffffffffffffffffffffff16021790555060208201518160000160146101000a81548160ff02191690831515021790555060408201518160010155606082015181600201559050506106a360018054610b7190919063ffffffff16565b600181905550600360009054906101000a900473ffffffffffffffffffffffffffffffffffffffff1673ffffffffffffffffffffffffffffffffffffffff166323b872dd3330856040518463ffffffff1660e01b815260040161070893929190610ee8565b600060405180830381600087803b15801561072257600080fd5b505af1158015610736573d6000803e3d6000fd5b5050505060016000819055505050565b60008060005b60015481101561080f576002600082815260200190815260200160002060000160149054906101000a900460ff1680156107e757508373ffffffffffffffffffffffffffffffffffffffff166002600083815260200190815260200160002060000160009054906101000a900473ffffffffffffffffffffffffffffffffffffffff1673ffffffffffffffffffffffffffffffffffffffff16145b156107fc576001826107f99190610f4e565b91505b808061080790610fa4565b91505061074c565b5080915050919050565b6002600054141561085f576040517f08c379a000000000000000000000000000000000000000000000000000000000815260040161085690610df0565b60405180910390fd5b60026000819055506002600082815260200190815260200160002060000160149054906101000a900460ff166108ca576040517f08c379a00000000000000000000000000000000000000000000000000000000081526004016108c190610ec8565b60405180910390fd5b60006002600083815260200190815260200160002060000160146101000a81548160ff021916908315150217905550600460009054906101000a900473ffffffffffffffffffffffffffffffffffffffff1673ffffffffffffffffffffffffffffffffffffffff166323b872dd336002600085815260200190815260200160002060000160009054906101000a900473ffffffffffffffffffffffffffffffffffffffff1660026000868152602001908152602001600020600201546040518463ffffffff1660e01b81526004016109a493929190610ee8565b6020604051808303816000875af11580156109c3573d6000803e3d6000fd5b505050506040513d601f19601f820116820180604052508101906109e79190611019565b50600360009054906101000a900473ffffffffffffffffffffffffffffffffffffffff1673ffffffffffffffffffffffffffffffffffffffff166323b872dd303360026000868152602001908152602001600020600101546040518463ffffffff1660e01b8152600401610a5d93929190610ee8565b600060405180830381600087803b158015610a7757600080fd5b505af1158015610a8b573d6000803e3d6000fd5b50505050600160008190555050565b60026020528060005260406000206000915090508060000160009054906101000a900473ffffffffffffffffffffffffffffffffffffffff16908060000160149054906101000a900460ff16908060010154908060020154905084565b60008060005b600154811015610b65576002600082815260200190815260200160002060000160149054906101000a900460ff1615610b525781841415610b42578092505050610b6c565b600182610b4f9190610f4e565b91505b8080610b5d90610fa4565b915050610afd565b5060009150505b919050565b60008183610b7f9190610f4e565b905092915050565b600080fd5b6000819050919050565b610b9f81610b8c565b8114610baa57600080fd5b50565b600081359050610bbc81610b96565b92915050565b600060208284031215610bd857610bd7610b87565b5b6000610be684828501610bad565b91505092915050565b610bf881610b8c565b82525050565b6000602082019050610c136000830184610bef565b92915050565b600073ffffffffffffffffffffffffffffffffffffffff82169050919050565b6000610c4482610c19565b9050919050565b610c5481610c39565b8114610c5f57600080fd5b50565b600081359050610c7181610c4b565b92915050565b60008060408385031215610c8e57610c8d610b87565b5b6000610c9c85828601610c62565b9250506020610cad85828601610bad565b9150509250929050565b60008060408385031215610cce57610ccd610b87565b5b6000610cdc85828601610bad565b9250506020610ced85828601610bad565b9150509250929050565b600060208284031215610d0d57610d0c610b87565b5b6000610d1b84828501610c62565b91505092915050565b610d2d81610c39565b82525050565b60008115159050919050565b610d4881610d33565b82525050565b6000608082019050610d636000830187610d24565b610d706020830186610d3f565b610d7d6040830185610bef565b610d8a6060830184610bef565b95945050505050565b600082825260208201905092915050565b7f5265656e7472616e637947756172643a207265656e7472616e742063616c6c00600082015250565b6000610dda601f83610d93565b9150610de582610da4565b602082019050919050565b60006020820190508181036000830152610e0981610dcd565b9050919050565b7f4d757374206265206f776e657200000000000000000000000000000000000000600082015250565b6000610e46600d83610d93565b9150610e5182610e10565b602082019050919050565b60006020820190508181036000830152610e7581610e39565b9050919050565b7f4d75737420626520616374697665000000000000000000000000000000000000600082015250565b6000610eb2600e83610d93565b9150610ebd82610e7c565b602082019050919050565b60006020820190508181036000830152610ee181610ea5565b9050919050565b6000606082019050610efd6000830186610d24565b610f0a6020830185610d24565b610f176040830184610bef565b949350505050565b7f4e487b7100000000000000000000000000000000000000000000000000000000600052601160045260246000fd5b6000610f5982610b8c565b9150610f6483610b8c565b9250827fffffffffffffffffffffffffffffffffffffffffffffffffffffffffffffffff03821115610f9957610f98610f1f565b5b828201905092915050565b6000610faf82610b8c565b91507fffffffffffffffffffffffffffffffffffffffffffffffffffffffffffffffff821415610fe257610fe1610f1f565b5b600182019050919050565b610ff681610d33565b811461100157600080fd5b50565b60008151905061101381610fed565b92915050565b60006020828403121561102f5761102e610b87565b5b600061103d84828501611004565b9150509291505056fea26469706673582212209ce3b9460c9dd81f05c5b99185fbe89b33732f19ebd80ae085debcb036d1512b64736f6c634300080a0033",
  "immutableReferences": {},
  "source": "// SPDX-License-Identifier: MIT\r\npragma solidity >=0.4.22 <0.9.0;\r\n\r\nimport \"../node_modules/@openzeppelin/contracts/token/ERC721/ERC721.sol\";\r\nimport \"../node_modules/@openzeppelin/contracts/utils/math/SafeMath.sol\";\r\nimport \"../node_modules/@openzeppelin/contracts/token/ERC20/ERC20.sol\";\r\nimport \"../node_modules/@openzeppelin/contracts/security/ReentrancyGuard.sol\";\r\n\r\nstruct Listing\r\n{\r\n  address owner;\r\n  bool is_active;\r\n  uint token_id;\r\n  uint price;\r\n}\r\n\r\ncontract MarketNFT is ReentrancyGuard {\r\n  using SafeMath for uint256;\r\n\r\n  uint public listing_count = 0;\r\n  mapping (uint => Listing) public listings;\r\n  ERC721 nftContract = ERC721(0x17Db5ED08064445cE0C3f2b452B4BFA3d93a71F4);\r\n  ERC20 tokenContract = ERC20(0xfB13B339a00A821034e0010080870fCEC9D289CA);\r\n\r\n  function addListing(uint token_id, uint price) public nonReentrant\r\n  {\r\n    listings[listing_count] = Listing(msg.sender, true, token_id, price);\r\n    listing_count = listing_count.add(1);\r\n    nftContract.transferFrom(msg.sender, address(this), token_id);\r\n  }\r\n\r\n  function removeListing(uint listing_id) public nonReentrant\r\n  {\r\n    require(listings[listing_id].owner == msg.sender, \"Must be owner\");\r\n    require(listings[listing_id].is_active, \"Must be active\");\r\n    listings[listing_id].is_active = false;\r\n    nftContract.transferFrom(address(this), msg.sender, listings[listing_id].token_id);\r\n  }\r\n\r\n  function buy(uint listing_id) public nonReentrant\r\n  {\r\n    require(listings[listing_id].is_active, \"Must be active\");\r\n    listings[listing_id].is_active = false;\r\n    tokenContract.transferFrom(msg.sender, listings[listing_id].owner, listings[listing_id].price);\r\n    nftContract.transferFrom(address(this), msg.sender, listings[listing_id].token_id);\r\n  }\r\n\r\n  function getActiveListings(uint index) public view returns(uint)\r\n  {\r\n    uint j;\r\n    for(uint i=0; i<listing_count; i++)\r\n    {\r\n      if(listings[i].is_active)\r\n      {\r\n        if(index == j)\r\n        {\r\n          return i;\r\n        }\r\n        j+=1;\r\n      }\r\n    }\r\n    return 0;\r\n  }\r\n\r\n  function getListingsByOwner(address owner, uint index) public view returns(uint)\r\n  {\r\n    uint j;\r\n    for(uint i=0; i<listing_count; i++)\r\n    {\r\n      if(listings[i].is_active && listings[i].owner == owner)\r\n      {\r\n        if(index == j)\r\n        {\r\n          return i;\r\n        }\r\n        j+=1;\r\n      }\r\n    }\r\n    return 0;\r\n  }\r\n\r\n  function getListingsByOwnerCount(address owner) public view returns(uint)\r\n  {\r\n    uint result;\r\n    for(uint i=0; i<listing_count; i++)\r\n    {\r\n      if(listings[i].is_active && listings[i].owner == owner)\r\n      {\r\n        result+=1;\r\n      }\r\n    }\r\n    return result;\r\n  }\r\n\r\n  function getActiveListingsCount() public view returns(uint)\r\n  {\r\n    uint result;\r\n    for(uint i=0; i<listing_count; i++)\r\n    {\r\n      if(listings[i].is_active)\r\n      {\r\n        result+=1;\r\n      }\r\n    }\r\n    return result;\r\n  }\r\n}",
  "sourcePath": "D:\\Programacion\\Blockchain\\lungo-token-nft\\nft-token-solidity-truffle\\contracts\\3.MarketNFT.sol",
  "compiler": {
    "name": "solc",
    "version": "0.8.10+commit.fc410830.Emscripten.clang"
  },
  "schemaVersion": "3.4.4",
  "updatedAt": "2022-02-03T17:27:23.530Z",
  "devdoc": {
    "kind": "dev",
    "methods": {},
    "version": 1
  },
  "userdoc": {
    "kind": "user",
    "methods": {},
    "version": 1
  }
}