{
  "contractName": "Staking",
  "abi": [
    {
      "inputs": [],
      "stateMutability": "nonpayable",
      "type": "constructor"
    },
    {
      "anonymous": false,
      "inputs": [
        {
          "indexed": true,
          "internalType": "address",
          "name": "owner",
          "type": "address"
        },
        {
          "indexed": true,
          "internalType": "address",
          "name": "spender",
          "type": "address"
        },
        {
          "indexed": false,
          "internalType": "uint256",
          "name": "value",
          "type": "uint256"
        }
      ],
      "name": "Approval",
      "type": "event"
    },
    {
      "anonymous": false,
      "inputs": [
        {
          "indexed": true,
          "internalType": "address",
          "name": "from",
          "type": "address"
        },
        {
          "indexed": true,
          "internalType": "address",
          "name": "to",
          "type": "address"
        },
        {
          "indexed": false,
          "internalType": "uint256",
          "name": "value",
          "type": "uint256"
        }
      ],
      "name": "Transfer",
      "type": "event"
    },
    {
      "inputs": [],
      "name": "REWARD_PER_BLOCK",
      "outputs": [
        {
          "internalType": "uint256",
          "name": "",
          "type": "uint256"
        }
      ],
      "stateMutability": "view",
      "type": "function",
      "constant": true
    },
    {
      "inputs": [
        {
          "internalType": "address",
          "name": "owner",
          "type": "address"
        },
        {
          "internalType": "address",
          "name": "spender",
          "type": "address"
        }
      ],
      "name": "allowance",
      "outputs": [
        {
          "internalType": "uint256",
          "name": "",
          "type": "uint256"
        }
      ],
      "stateMutability": "view",
      "type": "function",
      "constant": true
    },
    {
      "inputs": [
        {
          "internalType": "address",
          "name": "spender",
          "type": "address"
        },
        {
          "internalType": "uint256",
          "name": "amount",
          "type": "uint256"
        }
      ],
      "name": "approve",
      "outputs": [
        {
          "internalType": "bool",
          "name": "",
          "type": "bool"
        }
      ],
      "stateMutability": "nonpayable",
      "type": "function"
    },
    {
      "inputs": [
        {
          "internalType": "address",
          "name": "account",
          "type": "address"
        }
      ],
      "name": "balanceOf",
      "outputs": [
        {
          "internalType": "uint256",
          "name": "",
          "type": "uint256"
        }
      ],
      "stateMutability": "view",
      "type": "function",
      "constant": true
    },
    {
      "inputs": [
        {
          "internalType": "address",
          "name": "",
          "type": "address"
        }
      ],
      "name": "checkpoints",
      "outputs": [
        {
          "internalType": "uint256",
          "name": "",
          "type": "uint256"
        }
      ],
      "stateMutability": "view",
      "type": "function",
      "constant": true
    },
    {
      "inputs": [],
      "name": "decimals",
      "outputs": [
        {
          "internalType": "uint8",
          "name": "",
          "type": "uint8"
        }
      ],
      "stateMutability": "view",
      "type": "function",
      "constant": true
    },
    {
      "inputs": [
        {
          "internalType": "address",
          "name": "spender",
          "type": "address"
        },
        {
          "internalType": "uint256",
          "name": "subtractedValue",
          "type": "uint256"
        }
      ],
      "name": "decreaseAllowance",
      "outputs": [
        {
          "internalType": "bool",
          "name": "",
          "type": "bool"
        }
      ],
      "stateMutability": "nonpayable",
      "type": "function"
    },
    {
      "inputs": [
        {
          "internalType": "address",
          "name": "",
          "type": "address"
        }
      ],
      "name": "deposited_tokens",
      "outputs": [
        {
          "internalType": "uint256",
          "name": "",
          "type": "uint256"
        }
      ],
      "stateMutability": "view",
      "type": "function",
      "constant": true
    },
    {
      "inputs": [
        {
          "internalType": "address",
          "name": "",
          "type": "address"
        }
      ],
      "name": "has_deposited",
      "outputs": [
        {
          "internalType": "bool",
          "name": "",
          "type": "bool"
        }
      ],
      "stateMutability": "view",
      "type": "function",
      "constant": true
    },
    {
      "inputs": [
        {
          "internalType": "address",
          "name": "spender",
          "type": "address"
        },
        {
          "internalType": "uint256",
          "name": "addedValue",
          "type": "uint256"
        }
      ],
      "name": "increaseAllowance",
      "outputs": [
        {
          "internalType": "bool",
          "name": "",
          "type": "bool"
        }
      ],
      "stateMutability": "nonpayable",
      "type": "function"
    },
    {
      "inputs": [],
      "name": "my_nft",
      "outputs": [
        {
          "internalType": "contract ERC721",
          "name": "",
          "type": "address"
        }
      ],
      "stateMutability": "view",
      "type": "function",
      "constant": true
    },
    {
      "inputs": [],
      "name": "name",
      "outputs": [
        {
          "internalType": "string",
          "name": "",
          "type": "string"
        }
      ],
      "stateMutability": "view",
      "type": "function",
      "constant": true
    },
    {
      "inputs": [],
      "name": "symbol",
      "outputs": [
        {
          "internalType": "string",
          "name": "",
          "type": "string"
        }
      ],
      "stateMutability": "view",
      "type": "function",
      "constant": true
    },
    {
      "inputs": [],
      "name": "totalSupply",
      "outputs": [
        {
          "internalType": "uint256",
          "name": "",
          "type": "uint256"
        }
      ],
      "stateMutability": "view",
      "type": "function",
      "constant": true
    },
    {
      "inputs": [
        {
          "internalType": "address",
          "name": "recipient",
          "type": "address"
        },
        {
          "internalType": "uint256",
          "name": "amount",
          "type": "uint256"
        }
      ],
      "name": "transfer",
      "outputs": [
        {
          "internalType": "bool",
          "name": "",
          "type": "bool"
        }
      ],
      "stateMutability": "nonpayable",
      "type": "function"
    },
    {
      "inputs": [
        {
          "internalType": "address",
          "name": "sender",
          "type": "address"
        },
        {
          "internalType": "address",
          "name": "recipient",
          "type": "address"
        },
        {
          "internalType": "uint256",
          "name": "amount",
          "type": "uint256"
        }
      ],
      "name": "transferFrom",
      "outputs": [
        {
          "internalType": "bool",
          "name": "",
          "type": "bool"
        }
      ],
      "stateMutability": "nonpayable",
      "type": "function"
    },
    {
      "inputs": [
        {
          "internalType": "uint256",
          "name": "tokenId",
          "type": "uint256"
        }
      ],
      "name": "deposit",
      "outputs": [],
      "stateMutability": "nonpayable",
      "type": "function"
    },
    {
      "inputs": [],
      "name": "withdraw",
      "outputs": [],
      "stateMutability": "nonpayable",
      "type": "function"
    },
    {
      "inputs": [
        {
          "internalType": "address",
          "name": "beneficiary",
          "type": "address"
        }
      ],
      "name": "collect",
      "outputs": [],
      "stateMutability": "nonpayable",
      "type": "function"
    },
    {
      "inputs": [
        {
          "internalType": "address",
          "name": "beneficiary",
          "type": "address"
        }
      ],
      "name": "calculateReward",
      "outputs": [
        {
          "internalType": "uint256",
          "name": "",
          "type": "uint256"
        }
      ],
      "stateMutability": "view",
      "type": "function",
      "constant": true
    }
  ],
  "bytecode": "0x608060405267016345785d8a00006009553480156200001d57600080fd5b506040518060400160405280600d81526020017f5374616b696e6720546f6b656e000000000000000000000000000000000000008152506040518060400160405280600381526020017f53545400000000000000000000000000000000000000000000000000000000008152508160039080519060200190620000a292919062000119565b508060049080519060200190620000bb92919062000119565b5050507317db5ed08064445ce0c3f2b452b4bfa3d93a71f4600860006101000a81548173ffffffffffffffffffffffffffffffffffffffff021916908373ffffffffffffffffffffffffffffffffffffffff1602179055506200022e565b8280546200012790620001f8565b90600052602060002090601f0160209004810192826200014b576000855562000197565b82601f106200016657805160ff191683800117855562000197565b8280016001018555821562000197579182015b828111156200019657825182559160200191906001019062000179565b5b509050620001a69190620001aa565b5090565b5b80821115620001c5576000816000905550600101620001ab565b5090565b7f4e487b7100000000000000000000000000000000000000000000000000000000600052602260045260246000fd5b600060028204905060018216806200021157607f821691505b60208210811415620002285762000227620001c9565b5b50919050565b6120f0806200023e6000396000f3fe608060405234801561001057600080fd5b506004361061012c5760003560e01c806370a08231116100ad578063b6b55f2511610071578063b6b55f251461036d578063d82e396214610389578063dbb51d6e146103b9578063dd62ed3e146103e9578063fad49b34146104195761012c565b806370a08231146102a157806395d89b41146102d1578063975532dc146102ef578063a457c2d71461030d578063a9059cbb1461033d5761012c565b8063313ce567116100f4578063313ce567146101e957806339509351146102075780633ccfd60b146102375780633f48d010146102415780635db28484146102715761012c565b806306ec16f81461013157806306fdde031461014d578063095ea7b31461016b57806318160ddd1461019b57806323b872dd146101b9575b600080fd5b61014b600480360381019061014691906115e1565b610437565b005b610155610496565b60405161016291906116a7565b60405180910390f35b610185600480360381019061018091906116ff565b610528565b604051610192919061175a565b60405180910390f35b6101a3610546565b6040516101b09190611784565b60405180910390f35b6101d360048036038101906101ce919061179f565b610550565b6040516101e0919061175a565b60405180910390f35b6101f1610648565b6040516101fe919061180e565b60405180910390f35b610221600480360381019061021c91906116ff565b610651565b60405161022e919061175a565b60405180910390f35b61023f6106fd565b005b61025b600480360381019061025691906115e1565b6108bc565b604051610268919061175a565b60405180910390f35b61028b600480360381019061028691906115e1565b6108dc565b6040516102989190611784565b60405180910390f35b6102bb60048036038101906102b691906115e1565b6108f4565b6040516102c89190611784565b60405180910390f35b6102d961093c565b6040516102e691906116a7565b60405180910390f35b6102f76109ce565b6040516103049190611784565b60405180910390f35b610327600480360381019061032291906116ff565b6109d4565b604051610334919061175a565b60405180910390f35b610357600480360381019061035291906116ff565b610abf565b604051610364919061175a565b60405180910390f35b61038760048036038101906103829190611829565b610add565b005b6103a3600480360381019061039e91906115e1565b610e39565b6040516103b09190611784565b60405180910390f35b6103d360048036038101906103ce91906115e1565b610efb565b6040516103e09190611784565b60405180910390f35b61040360048036038101906103fe9190611856565b610f13565b6040516104109190611784565b60405180910390f35b610421610f9a565b60405161042e91906118f5565b60405180910390f35b600061044282610e39565b905043600560008473ffffffffffffffffffffffffffffffffffffffff1673ffffffffffffffffffffffffffffffffffffffff168152602001908152602001600020819055506104923382610fc0565b5050565b6060600380546104a59061193f565b80601f01602080910402602001604051908101604052809291908181526020018280546104d19061193f565b801561051e5780601f106104f35761010080835404028352916020019161051e565b820191906000526020600020905b81548152906001019060200180831161050157829003601f168201915b5050505050905090565b600061053c610535611120565b8484611128565b6001905092915050565b6000600254905090565b600061055d8484846112f3565b6000600160008673ffffffffffffffffffffffffffffffffffffffff1673ffffffffffffffffffffffffffffffffffffffff16815260200190815260200160002060006105a8611120565b73ffffffffffffffffffffffffffffffffffffffff1673ffffffffffffffffffffffffffffffffffffffff16815260200190815260200160002054905082811015610628576040517f08c379a000000000000000000000000000000000000000000000000000000000815260040161061f906119e3565b60405180910390fd5b61063c85610634611120565b858403611128565b60019150509392505050565b60006012905090565b60006106f361065e611120565b84846001600061066c611120565b73ffffffffffffffffffffffffffffffffffffffff1673ffffffffffffffffffffffffffffffffffffffff16815260200190815260200160002060008873ffffffffffffffffffffffffffffffffffffffff1673ffffffffffffffffffffffffffffffffffffffff168152602001908152602001600020546106ee9190611a32565b611128565b6001905092915050565b600760003373ffffffffffffffffffffffffffffffffffffffff1673ffffffffffffffffffffffffffffffffffffffff16815260200190815260200160002060009054906101000a900460ff16610789576040517f08c379a000000000000000000000000000000000000000000000000000000000815260040161078090611ad4565b60405180910390fd5b61079233610437565b600860009054906101000a900473ffffffffffffffffffffffffffffffffffffffff1673ffffffffffffffffffffffffffffffffffffffff166323b872dd3033600660003373ffffffffffffffffffffffffffffffffffffffff1673ffffffffffffffffffffffffffffffffffffffff168152602001908152602001600020546040518463ffffffff1660e01b815260040161083093929190611b03565b600060405180830381600087803b15801561084a57600080fd5b505af115801561085e573d6000803e3d6000fd5b505050506000600760003373ffffffffffffffffffffffffffffffffffffffff1673ffffffffffffffffffffffffffffffffffffffff16815260200190815260200160002060006101000a81548160ff021916908315150217905550565b60076020528060005260406000206000915054906101000a900460ff1681565b60066020528060005260406000206000915090505481565b60008060008373ffffffffffffffffffffffffffffffffffffffff1673ffffffffffffffffffffffffffffffffffffffff168152602001908152602001600020549050919050565b60606004805461094b9061193f565b80601f01602080910402602001604051908101604052809291908181526020018280546109779061193f565b80156109c45780601f10610999576101008083540402835291602001916109c4565b820191906000526020600020905b8154815290600101906020018083116109a757829003601f168201915b5050505050905090565b60095481565b600080600160006109e3611120565b73ffffffffffffffffffffffffffffffffffffffff1673ffffffffffffffffffffffffffffffffffffffff16815260200190815260200160002060008573ffffffffffffffffffffffffffffffffffffffff1673ffffffffffffffffffffffffffffffffffffffff16815260200190815260200160002054905082811015610aa0576040517f08c379a0000000000000000000000000000000000000000000000000000000008152600401610a9790611bac565b60405180910390fd5b610ab4610aab611120565b85858403611128565b600191505092915050565b6000610ad3610acc611120565b84846112f3565b6001905092915050565b600860009054906101000a900473ffffffffffffffffffffffffffffffffffffffff1673ffffffffffffffffffffffffffffffffffffffff16636352211e826040518263ffffffff1660e01b8152600401610b389190611784565b602060405180830381865afa158015610b55573d6000803e3d6000fd5b505050506040513d601f19601f82011682018060405250810190610b799190611be1565b73ffffffffffffffffffffffffffffffffffffffff163373ffffffffffffffffffffffffffffffffffffffff1614610be6576040517f08c379a0000000000000000000000000000000000000000000000000000000008152600401610bdd90611c5a565b60405180910390fd5b600760003373ffffffffffffffffffffffffffffffffffffffff1673ffffffffffffffffffffffffffffffffffffffff16815260200190815260200160002060009054906101000a900460ff1615610c73576040517f08c379a0000000000000000000000000000000000000000000000000000000008152600401610c6a90611cc6565b60405180910390fd5b6000600560003373ffffffffffffffffffffffffffffffffffffffff1673ffffffffffffffffffffffffffffffffffffffff168152602001908152602001600020541415610d005743600560003373ffffffffffffffffffffffffffffffffffffffff1673ffffffffffffffffffffffffffffffffffffffff168152602001908152602001600020819055505b610d0933610437565b600860009054906101000a900473ffffffffffffffffffffffffffffffffffffffff1673ffffffffffffffffffffffffffffffffffffffff166323b872dd3330846040518463ffffffff1660e01b8152600401610d6893929190611b03565b600060405180830381600087803b158015610d8257600080fd5b505af1158015610d96573d6000803e3d6000fd5b5050505080600660003373ffffffffffffffffffffffffffffffffffffffff1673ffffffffffffffffffffffffffffffffffffffff168152602001908152602001600020819055506001600760003373ffffffffffffffffffffffffffffffffffffffff1673ffffffffffffffffffffffffffffffffffffffff16815260200190815260200160002060006101000a81548160ff02191690831515021790555050565b6000600760003373ffffffffffffffffffffffffffffffffffffffff1673ffffffffffffffffffffffffffffffffffffffff16815260200190815260200160002060009054906101000a900460ff16610e955760009050610ef6565b6000600560008473ffffffffffffffffffffffffffffffffffffffff1673ffffffffffffffffffffffffffffffffffffffff1681526020019081526020016000205490508043610ee59190611ce6565b600954610ef29190611d1a565b9150505b919050565b60056020528060005260406000206000915090505481565b6000600160008473ffffffffffffffffffffffffffffffffffffffff1673ffffffffffffffffffffffffffffffffffffffff16815260200190815260200160002060008373ffffffffffffffffffffffffffffffffffffffff1673ffffffffffffffffffffffffffffffffffffffff16815260200190815260200160002054905092915050565b600860009054906101000a900473ffffffffffffffffffffffffffffffffffffffff1681565b600073ffffffffffffffffffffffffffffffffffffffff168273ffffffffffffffffffffffffffffffffffffffff161415611030576040517f08c379a000000000000000000000000000000000000000000000000000000000815260040161102790611dc0565b60405180910390fd5b61103c60008383611574565b806002600082825461104e9190611a32565b92505081905550806000808473ffffffffffffffffffffffffffffffffffffffff1673ffffffffffffffffffffffffffffffffffffffff16815260200190815260200160002060008282546110a39190611a32565b925050819055508173ffffffffffffffffffffffffffffffffffffffff16600073ffffffffffffffffffffffffffffffffffffffff167fddf252ad1be2c89b69c2b068fc378daa952ba7f163c4a11628f55a4df523b3ef836040516111089190611784565b60405180910390a361111c60008383611579565b5050565b600033905090565b600073ffffffffffffffffffffffffffffffffffffffff168373ffffffffffffffffffffffffffffffffffffffff161415611198576040517f08c379a000000000000000000000000000000000000000000000000000000000815260040161118f90611e52565b60405180910390fd5b600073ffffffffffffffffffffffffffffffffffffffff168273ffffffffffffffffffffffffffffffffffffffff161415611208576040517f08c379a00000000000000000000000000000000000000000000000000000000081526004016111ff90611ee4565b60405180910390fd5b80600160008573ffffffffffffffffffffffffffffffffffffffff1673ffffffffffffffffffffffffffffffffffffffff16815260200190815260200160002060008473ffffffffffffffffffffffffffffffffffffffff1673ffffffffffffffffffffffffffffffffffffffff168152602001908152602001600020819055508173ffffffffffffffffffffffffffffffffffffffff168373ffffffffffffffffffffffffffffffffffffffff167f8c5be1e5ebec7d5bd14f71427d1e84f3dd0314c0f7b2291e5b200ac8c7c3b925836040516112e69190611784565b60405180910390a3505050565b600073ffffffffffffffffffffffffffffffffffffffff168373ffffffffffffffffffffffffffffffffffffffff161415611363576040517f08c379a000000000000000000000000000000000000000000000000000000000815260040161135a90611f76565b60405180910390fd5b600073ffffffffffffffffffffffffffffffffffffffff168273ffffffffffffffffffffffffffffffffffffffff1614156113d3576040517f08c379a00000000000000000000000000000000000000000000000000000000081526004016113ca90612008565b60405180910390fd5b6113de838383611574565b60008060008573ffffffffffffffffffffffffffffffffffffffff1673ffffffffffffffffffffffffffffffffffffffff16815260200190815260200160002054905081811015611464576040517f08c379a000000000000000000000000000000000000000000000000000000000815260040161145b9061209a565b60405180910390fd5b8181036000808673ffffffffffffffffffffffffffffffffffffffff1673ffffffffffffffffffffffffffffffffffffffff16815260200190815260200160002081905550816000808573ffffffffffffffffffffffffffffffffffffffff1673ffffffffffffffffffffffffffffffffffffffff16815260200190815260200160002060008282546114f79190611a32565b925050819055508273ffffffffffffffffffffffffffffffffffffffff168473ffffffffffffffffffffffffffffffffffffffff167fddf252ad1be2c89b69c2b068fc378daa952ba7f163c4a11628f55a4df523b3ef8460405161155b9190611784565b60405180910390a361156e848484611579565b50505050565b505050565b505050565b600080fd5b600073ffffffffffffffffffffffffffffffffffffffff82169050919050565b60006115ae82611583565b9050919050565b6115be816115a3565b81146115c957600080fd5b50565b6000813590506115db816115b5565b92915050565b6000602082840312156115f7576115f661157e565b5b6000611605848285016115cc565b91505092915050565b600081519050919050565b600082825260208201905092915050565b60005b8381101561164857808201518184015260208101905061162d565b83811115611657576000848401525b50505050565b6000601f19601f8301169050919050565b60006116798261160e565b6116838185611619565b935061169381856020860161162a565b61169c8161165d565b840191505092915050565b600060208201905081810360008301526116c1818461166e565b905092915050565b6000819050919050565b6116dc816116c9565b81146116e757600080fd5b50565b6000813590506116f9816116d3565b92915050565b600080604083850312156117165761171561157e565b5b6000611724858286016115cc565b9250506020611735858286016116ea565b9150509250929050565b60008115159050919050565b6117548161173f565b82525050565b600060208201905061176f600083018461174b565b92915050565b61177e816116c9565b82525050565b60006020820190506117996000830184611775565b92915050565b6000806000606084860312156117b8576117b761157e565b5b60006117c6868287016115cc565b93505060206117d7868287016115cc565b92505060406117e8868287016116ea565b9150509250925092565b600060ff82169050919050565b611808816117f2565b82525050565b600060208201905061182360008301846117ff565b92915050565b60006020828403121561183f5761183e61157e565b5b600061184d848285016116ea565b91505092915050565b6000806040838503121561186d5761186c61157e565b5b600061187b858286016115cc565b925050602061188c858286016115cc565b9150509250929050565b6000819050919050565b60006118bb6118b66118b184611583565b611896565b611583565b9050919050565b60006118cd826118a0565b9050919050565b60006118df826118c2565b9050919050565b6118ef816118d4565b82525050565b600060208201905061190a60008301846118e6565b92915050565b7f4e487b7100000000000000000000000000000000000000000000000000000000600052602260045260246000fd5b6000600282049050600182168061195757607f821691505b6020821081141561196b5761196a611910565b5b50919050565b7f45524332303a207472616e7366657220616d6f756e742065786365656473206160008201527f6c6c6f77616e6365000000000000000000000000000000000000000000000000602082015250565b60006119cd602883611619565b91506119d882611971565b604082019050919050565b600060208201905081810360008301526119fc816119c0565b9050919050565b7f4e487b7100000000000000000000000000000000000000000000000000000000600052601160045260246000fd5b6000611a3d826116c9565b9150611a48836116c9565b9250827fffffffffffffffffffffffffffffffffffffffffffffffffffffffffffffffff03821115611a7d57611a7c611a03565b5b828201905092915050565b7f4e6f20746f6b656e7320746f2077697468646172770000000000000000000000600082015250565b6000611abe601583611619565b9150611ac982611a88565b602082019050919050565b60006020820190508181036000830152611aed81611ab1565b9050919050565b611afd816115a3565b82525050565b6000606082019050611b186000830186611af4565b611b256020830185611af4565b611b326040830184611775565b949350505050565b7f45524332303a2064656372656173656420616c6c6f77616e63652062656c6f7760008201527f207a65726f000000000000000000000000000000000000000000000000000000602082015250565b6000611b96602583611619565b9150611ba182611b3a565b604082019050919050565b60006020820190508181036000830152611bc581611b89565b9050919050565b600081519050611bdb816115b5565b92915050565b600060208284031215611bf757611bf661157e565b5b6000611c0584828501611bcc565b91505092915050565b7f53656e646572206d757374206265206f776e6572000000000000000000000000600082015250565b6000611c44601483611619565b9150611c4f82611c0e565b602082019050919050565b60006020820190508181036000830152611c7381611c37565b9050919050565b7f53656e64657220616c7265616479206465706f73697465640000000000000000600082015250565b6000611cb0601883611619565b9150611cbb82611c7a565b602082019050919050565b60006020820190508181036000830152611cdf81611ca3565b9050919050565b6000611cf1826116c9565b9150611cfc836116c9565b925082821015611d0f57611d0e611a03565b5b828203905092915050565b6000611d25826116c9565b9150611d30836116c9565b9250817fffffffffffffffffffffffffffffffffffffffffffffffffffffffffffffffff0483118215151615611d6957611d68611a03565b5b828202905092915050565b7f45524332303a206d696e7420746f20746865207a65726f206164647265737300600082015250565b6000611daa601f83611619565b9150611db582611d74565b602082019050919050565b60006020820190508181036000830152611dd981611d9d565b9050919050565b7f45524332303a20617070726f76652066726f6d20746865207a65726f2061646460008201527f7265737300000000000000000000000000000000000000000000000000000000602082015250565b6000611e3c602483611619565b9150611e4782611de0565b604082019050919050565b60006020820190508181036000830152611e6b81611e2f565b9050919050565b7f45524332303a20617070726f766520746f20746865207a65726f20616464726560008201527f7373000000000000000000000000000000000000000000000000000000000000602082015250565b6000611ece602283611619565b9150611ed982611e72565b604082019050919050565b60006020820190508181036000830152611efd81611ec1565b9050919050565b7f45524332303a207472616e736665722066726f6d20746865207a65726f20616460008201527f6472657373000000000000000000000000000000000000000000000000000000602082015250565b6000611f60602583611619565b9150611f6b82611f04565b604082019050919050565b60006020820190508181036000830152611f8f81611f53565b9050919050565b7f45524332303a207472616e7366657220746f20746865207a65726f206164647260008201527f6573730000000000000000000000000000000000000000000000000000000000602082015250565b6000611ff2602383611619565b9150611ffd82611f96565b604082019050919050565b6000602082019050818103600083015261202181611fe5565b9050919050565b7f45524332303a207472616e7366657220616d6f756e742065786365656473206260008201527f616c616e63650000000000000000000000000000000000000000000000000000602082015250565b6000612084602683611619565b915061208f82612028565b604082019050919050565b600060208201905081810360008301526120b381612077565b905091905056fea2646970667358221220ca70c0110b99617c76de200b07f708f843714f00ee528b28397b702c188053f264736f6c634300080a0033",
  "immutableReferences": {},
  "source": "// SPDX-License-Identifier: MIT\r\npragma solidity >=0.4.22 <0.9.0;\r\n\r\nimport \"../node_modules/@openzeppelin/contracts/token/ERC20/ERC20.sol\";\r\nimport \"../node_modules/@openzeppelin/contracts/token/ERC721/ERC721.sol\";\r\n\r\ncontract Staking is ERC20\r\n{\r\n    mapping(address => uint256) public checkpoints;\r\n    mapping(address => uint256) public deposited_tokens;\r\n    mapping(address => bool) public has_deposited;\r\n    ERC721 public my_nft;\r\n\r\n    uint public REWARD_PER_BLOCK = 0.1 ether;\r\n\r\n    constructor() ERC20(\"Staking Token\", \"STT\"){\r\n        my_nft = ERC721(0x17Db5ED08064445cE0C3f2b452B4BFA3d93a71F4);\r\n    }\r\n\r\n    function deposit(uint256 tokenId) external\r\n    {\r\n        require (msg.sender == my_nft.ownerOf(tokenId), 'Sender must be owner');\r\n        require (!has_deposited[msg.sender], 'Sender already deposited');\r\n        if(checkpoints[msg.sender] == 0){\r\n            checkpoints[msg.sender] = block.number;\r\n        }\r\n        collect(msg.sender);\r\n        my_nft.transferFrom(msg.sender, address(this), tokenId);\r\n        deposited_tokens[msg.sender] = tokenId;\r\n        has_deposited[msg.sender] = true;\r\n   }\r\n\r\n    function withdraw() external\r\n    {\r\n        require(has_deposited[msg.sender], 'No tokens to withdarw');\r\n        collect(msg.sender);\r\n        my_nft.transferFrom(address(this), msg.sender, deposited_tokens[msg.sender]);\r\n        has_deposited[msg.sender] = false;\r\n    }\r\n\r\n    function collect(address beneficiary) public\r\n    {\r\n        uint256 reward = calculateReward(beneficiary);\r\n        checkpoints[beneficiary] = block.number;      \r\n        _mint(msg.sender, reward);\r\n    }\r\n\r\n    function calculateReward(address beneficiary) public view returns(uint256)\r\n    {\r\n        if(!has_deposited[msg.sender])\r\n        {\r\n            return 0;\r\n        }\r\n        uint256 checkpoint = checkpoints[beneficiary];\r\n        return REWARD_PER_BLOCK * (block.number-checkpoint);\r\n    }\r\n}",
  "sourcePath": "D:\\Programacion\\Blockchain\\lungo-token-nft\\nft-token-solidity-truffle\\contracts\\6.Staking.sol",
  "compiler": {
    "name": "solc",
    "version": "0.8.10+commit.fc410830.Emscripten.clang"
  },
  "schemaVersion": "3.4.4",
  "updatedAt": "2022-02-03T17:27:24.951Z",
  "networkType": "ethereum",
  "devdoc": {
    "kind": "dev",
    "methods": {
      "allowance(address,address)": {
        "details": "See {IERC20-allowance}."
      },
      "approve(address,uint256)": {
        "details": "See {IERC20-approve}. Requirements: - `spender` cannot be the zero address."
      },
      "balanceOf(address)": {
        "details": "See {IERC20-balanceOf}."
      },
      "decimals()": {
        "details": "Returns the number of decimals used to get its user representation. For example, if `decimals` equals `2`, a balance of `505` tokens should be displayed to a user as `5.05` (`505 / 10 ** 2`). Tokens usually opt for a value of 18, imitating the relationship between Ether and Wei. This is the value {ERC20} uses, unless this function is overridden; NOTE: This information is only used for _display_ purposes: it in no way affects any of the arithmetic of the contract, including {IERC20-balanceOf} and {IERC20-transfer}."
      },
      "decreaseAllowance(address,uint256)": {
        "details": "Atomically decreases the allowance granted to `spender` by the caller. This is an alternative to {approve} that can be used as a mitigation for problems described in {IERC20-approve}. Emits an {Approval} event indicating the updated allowance. Requirements: - `spender` cannot be the zero address. - `spender` must have allowance for the caller of at least `subtractedValue`."
      },
      "increaseAllowance(address,uint256)": {
        "details": "Atomically increases the allowance granted to `spender` by the caller. This is an alternative to {approve} that can be used as a mitigation for problems described in {IERC20-approve}. Emits an {Approval} event indicating the updated allowance. Requirements: - `spender` cannot be the zero address."
      },
      "name()": {
        "details": "Returns the name of the token."
      },
      "symbol()": {
        "details": "Returns the symbol of the token, usually a shorter version of the name."
      },
      "totalSupply()": {
        "details": "See {IERC20-totalSupply}."
      },
      "transfer(address,uint256)": {
        "details": "See {IERC20-transfer}. Requirements: - `recipient` cannot be the zero address. - the caller must have a balance of at least `amount`."
      },
      "transferFrom(address,address,uint256)": {
        "details": "See {IERC20-transferFrom}. Emits an {Approval} event indicating the updated allowance. This is not required by the EIP. See the note at the beginning of {ERC20}. Requirements: - `sender` and `recipient` cannot be the zero address. - `sender` must have a balance of at least `amount`. - the caller must have allowance for ``sender``'s tokens of at least `amount`."
      }
    },
    "version": 1
  },
  "userdoc": {
    "kind": "user",
    "methods": {},
    "version": 1
  }
}